{
  "_format": "hh-sol-artifact-1",
  "contractName": "TournamentFactory",
  "sourceName": "contracts/TournamentFactory.sol",
  "abi": [
    {
      "inputs": [
        {
          "internalType": "address",
          "name": "_hostNft",
          "type": "address"
        }
      ],
      "stateMutability": "nonpayable",
      "type": "constructor"
    },
    {
      "anonymous": false,
      "inputs": [
        {
          "indexed": true,
          "internalType": "uint256",
          "name": "tournamentId",
          "type": "uint256"
        },
        {
          "indexed": true,
          "internalType": "address",
          "name": "hostAddress",
          "type": "address"
        }
      ],
      "name": "TournamentCreated",
      "type": "event"
    },
    {
      "inputs": [
        {
          "internalType": "address",
          "name": "",
          "type": "address"
        },
        {
          "internalType": "uint256",
          "name": "",
          "type": "uint256"
        }
      ],
      "name": "addressToHostTournamentIds",
      "outputs": [
        {
          "internalType": "uint256",
          "name": "",
          "type": "uint256"
        }
      ],
      "stateMutability": "view",
      "type": "function"
    },
    {
      "inputs": [
        {
          "internalType": "address",
          "name": "_tournamentOwner",
          "type": "address"
        },
        {
          "internalType": "uint256",
          "name": "_tournamentEndTime",
          "type": "uint256"
        },
        {
          "internalType": "uint256",
          "name": "_percentageOfWinner",
          "type": "uint256"
        },
        {
          "components": [
            {
              "internalType": "string",
              "name": "name",
              "type": "string"
            },
            {
              "internalType": "string",
              "name": "profile",
              "type": "string"
            }
          ],
          "internalType": "struct TournamentDetails",
          "name": "_tournamentDetails",
          "type": "tuple"
        },
        {
          "internalType": "address",
          "name": "_nftAddr",
          "type": "address"
        }
      ],
      "name": "createTournament",
      "outputs": [],
      "stateMutability": "nonpayable",
      "type": "function"
    },
    {
      "inputs": [],
      "name": "getAllTournaments",
      "outputs": [
        {
          "internalType": "uint256[]",
          "name": "",
          "type": "uint256[]"
        }
      ],
      "stateMutability": "view",
      "type": "function"
    },
    {
      "inputs": [],
      "name": "getHostAllTournaments",
      "outputs": [
        {
          "internalType": "uint256[]",
          "name": "",
          "type": "uint256[]"
        }
      ],
      "stateMutability": "view",
      "type": "function"
    },
    {
      "inputs": [
        {
          "internalType": "address",
          "name": "_host",
          "type": "address"
        }
      ],
      "name": "getHostTournament",
      "outputs": [
        {
          "internalType": "uint256[]",
          "name": "",
          "type": "uint256[]"
        }
      ],
      "stateMutability": "view",
      "type": "function"
    },
    {
      "inputs": [
        {
          "internalType": "uint256",
          "name": "_id",
          "type": "uint256"
        }
      ],
      "name": "getTournamentAddress",
      "outputs": [
        {
          "internalType": "address",
          "name": "",
          "type": "address"
        }
      ],
      "stateMutability": "view",
      "type": "function"
    },
    {
      "inputs": [],
      "name": "getTournamentLength",
      "outputs": [
        {
          "internalType": "uint256",
          "name": "",
          "type": "uint256"
        }
      ],
      "stateMutability": "view",
      "type": "function"
    },
    {
      "inputs": [],
      "name": "hostFactory",
      "outputs": [
        {
          "internalType": "contract HostFactory",
          "name": "",
          "type": "address"
        }
      ],
      "stateMutability": "view",
      "type": "function"
    },
    {
      "inputs": [],
      "name": "hostNft",
      "outputs": [
        {
          "internalType": "contract IBase721",
          "name": "",
          "type": "address"
        }
      ],
      "stateMutability": "view",
      "type": "function"
    },
    {
      "inputs": [],
      "name": "tournamentDetails",
      "outputs": [
        {
          "internalType": "string",
          "name": "name",
          "type": "string"
        },
        {
          "internalType": "string",
          "name": "profile",
          "type": "string"
        }
      ],
      "stateMutability": "view",
      "type": "function"
    },
    {
      "inputs": [],
      "name": "tournamentId",
      "outputs": [
        {
          "internalType": "uint256",
          "name": "",
          "type": "uint256"
        }
      ],
      "stateMutability": "view",
      "type": "function"
    },
    {
      "inputs": [
        {
          "internalType": "uint256",
          "name": "",
          "type": "uint256"
        }
      ],
      "name": "tournamentIdToAddress",
      "outputs": [
        {
          "internalType": "address",
          "name": "",
          "type": "address"
        }
      ],
      "stateMutability": "view",
      "type": "function"
    },
    {
      "inputs": [
        {
          "internalType": "uint256",
          "name": "",
          "type": "uint256"
        }
      ],
      "name": "tournaments",
      "outputs": [
        {
          "internalType": "uint256",
          "name": "",
          "type": "uint256"
        }
      ],
      "stateMutability": "view",
      "type": "function"
    }
  ],
  "bytecode": "0x60806040523480156200001157600080fd5b50604051620032ee380380620032ee8339818101604052810190620000379190620000f1565b80600560006101000a81548173ffffffffffffffffffffffffffffffffffffffff021916908373ffffffffffffffffffffffffffffffffffffffff16021790555060016003819055505062000123565b600080fd5b600073ffffffffffffffffffffffffffffffffffffffff82169050919050565b6000620000b9826200008c565b9050919050565b620000cb81620000ac565b8114620000d757600080fd5b50565b600081519050620000eb81620000c0565b92915050565b6000602082840312156200010a576200010962000087565b5b60006200011a84828501620000da565b91505092915050565b6131bb80620001336000396000f3fe60806040523480156200001157600080fd5b5060043610620000e25760003560e01c80639bce19001162000099578063d4715905116200006f578063d4715905146200026a578063e2be49df14620002a0578063ecccc6da14620002c0578063f809ab4314620002e257620000e2565b80639bce190014620001f0578063a3e30f5a1462000212578063c1deef52146200024857620000e2565b80630f9c381a14620000e7578063123d948214620001095780632049b2e1146200012c578063509e91a214620001625780637503e1b71462000184578063786ffb1114620001ba575b600080fd5b620000f162000304565b604051620001009190620009f8565b60405180910390f35b620001136200032a565b6040516200012392919062000aaf565b60405180910390f35b6200014a600480360381019062000144919062000b39565b6200045c565b60405162000159919062000b90565b60405180910390f35b6200016c6200048f565b6040516200017b919062000c7b565b60405180910390f35b620001a260048036038101906200019c919062000b39565b62000525565b604051620001b1919062000cb0565b60405180910390f35b620001d86004803603810190620001d2919062000cfe565b6200054a565b604051620001e7919062000cb0565b60405180910390f35b620001fa6200057c565b60405162000209919062000d7e565b60405180910390f35b6200023060048036038101906200022a919062000d9b565b620005a2565b6040516200023f919062000c7b565b60405180910390f35b620002526200063a565b60405162000261919062000cb0565b60405180910390f35b62000288600480360381019062000282919062000b39565b62000647565b60405162000297919062000b90565b60405180910390f35b620002be6004803603810190620002b8919062000fbf565b62000684565b005b620002ca620008ff565b604051620002d9919062000c7b565b60405180910390f35b620002ec62000959565b604051620002fb919062000cb0565b60405180910390f35b600460009054906101000a900473ffffffffffffffffffffffffffffffffffffffff1681565b60068060000180546200033d9062001095565b80601f01602080910402602001604051908101604052809291908181526020018280546200036b9062001095565b8015620003bc5780601f106200039057610100808354040283529160200191620003bc565b820191906000526020600020905b8154815290600101906020018083116200039e57829003601f168201915b505050505090806001018054620003d39062001095565b80601f0160208091040260200160405190810160405280929190818152602001828054620004019062001095565b8015620004525780601f10620004265761010080835404028352916020019162000452565b820191906000526020600020905b8154815290600101906020018083116200043457829003601f168201915b5050505050905082565b60016020528060005260406000206000915054906101000a900473ffffffffffffffffffffffffffffffffffffffff1681565b60606000803373ffffffffffffffffffffffffffffffffffffffff1673ffffffffffffffffffffffffffffffffffffffff1681526020019081526020016000208054806020026020016040519081016040528092919081815260200182805480156200051b57602002820191906000526020600020905b81548152602001906001019080831162000506575b5050505050905090565b600281815481106200053657600080fd5b906000526020600020016000915090505481565b600060205281600052604060002081815481106200056757600080fd5b90600052602060002001600091509150505481565b600560009054906101000a900473ffffffffffffffffffffffffffffffffffffffff1681565b60606000808373ffffffffffffffffffffffffffffffffffffffff1673ffffffffffffffffffffffffffffffffffffffff1681526020019081526020016000208054806020026020016040519081016040528092919081815260200182805480156200062e57602002820191906000526020600020905b81548152602001906001019080831162000619575b50505050509050919050565b6000600280549050905090565b60006001600083815260200190815260200160002060009054906101000a900473ffffffffffffffffffffffffffffffffffffffff169050919050565b6000600560009054906101000a900473ffffffffffffffffffffffffffffffffffffffff1673ffffffffffffffffffffffffffffffffffffffff166370a08231336040518263ffffffff1660e01b8152600401620006e3919062000b90565b602060405180830381865afa15801562000701573d6000803e3d6000fd5b505050506040513d601f19601f82011682018060405250810190620007279190620010e1565b116200076a576040517f08c379a0000000000000000000000000000000000000000000000000000000008152600401620007619062001163565b60405180910390fd5b600085858585856040516200077f906200095f565b6200078f9594939291906200121f565b604051809103906000f080158015620007ac573d6000803e3d6000fd5b5090506000803373ffffffffffffffffffffffffffffffffffffffff1673ffffffffffffffffffffffffffffffffffffffff16815260200190815260200160002060035490806001815401808255809150506001900390600052602060002001600090919091909150558060016000600354815260200190815260200160002060006101000a81548173ffffffffffffffffffffffffffffffffffffffff021916908373ffffffffffffffffffffffffffffffffffffffff160217905550600260035490806001815401808255809150506001900390600052602060002001600090919091909150553373ffffffffffffffffffffffffffffffffffffffff166003547fb65ca7bac8eb3acf5e536022d4e7cf17c862c1fd36d11b20dd253da7569b671b60405160405180910390a3600160036000828254620008f09190620012b2565b92505081905550505050505050565b606060028054806020026020016040519081016040528092919081815260200182805480156200094f57602002820191906000526020600020905b8154815260200190600101908083116200093a575b5050505050905090565b60035481565b611e9880620012ee83390190565b600073ffffffffffffffffffffffffffffffffffffffff82169050919050565b6000819050919050565b6000620009b8620009b2620009ac846200096d565b6200098d565b6200096d565b9050919050565b6000620009cc8262000997565b9050919050565b6000620009e082620009bf565b9050919050565b620009f281620009d3565b82525050565b600060208201905062000a0f6000830184620009e7565b92915050565b600081519050919050565b600082825260208201905092915050565b60005b8381101562000a5157808201518184015260208101905062000a34565b60008484015250505050565b6000601f19601f8301169050919050565b600062000a7b8262000a15565b62000a87818562000a20565b935062000a9981856020860162000a31565b62000aa48162000a5d565b840191505092915050565b6000604082019050818103600083015262000acb818562000a6e565b9050818103602083015262000ae1818462000a6e565b90509392505050565b6000604051905090565b600080fd5b600080fd5b6000819050919050565b62000b138162000afe565b811462000b1f57600080fd5b50565b60008135905062000b338162000b08565b92915050565b60006020828403121562000b525762000b5162000af4565b5b600062000b628482850162000b22565b91505092915050565b600062000b78826200096d565b9050919050565b62000b8a8162000b6b565b82525050565b600060208201905062000ba7600083018462000b7f565b92915050565b600081519050919050565b600082825260208201905092915050565b6000819050602082019050919050565b62000be48162000afe565b82525050565b600062000bf8838362000bd9565b60208301905092915050565b6000602082019050919050565b600062000c1e8262000bad565b62000c2a818562000bb8565b935062000c378362000bc9565b8060005b8381101562000c6e57815162000c52888262000bea565b975062000c5f8362000c04565b92505060018101905062000c3b565b5085935050505092915050565b6000602082019050818103600083015262000c97818462000c11565b905092915050565b62000caa8162000afe565b82525050565b600060208201905062000cc7600083018462000c9f565b92915050565b62000cd88162000b6b565b811462000ce457600080fd5b50565b60008135905062000cf88162000ccd565b92915050565b6000806040838503121562000d185762000d1762000af4565b5b600062000d288582860162000ce7565b925050602062000d3b8582860162000b22565b9150509250929050565b600062000d528262000997565b9050919050565b600062000d668262000d45565b9050919050565b62000d788162000d59565b82525050565b600060208201905062000d95600083018462000d6d565b92915050565b60006020828403121562000db45762000db362000af4565b5b600062000dc48482850162000ce7565b91505092915050565b600080fd5b7f4e487b7100000000000000000000000000000000000000000000000000000000600052604160045260246000fd5b62000e0c8262000a5d565b810181811067ffffffffffffffff8211171562000e2e5762000e2d62000dd2565b5b80604052505050565b600062000e4362000aea565b905062000e51828262000e01565b919050565b600080fd5b600080fd5b600080fd5b600067ffffffffffffffff82111562000e835762000e8262000dd2565b5b62000e8e8262000a5d565b9050602081019050919050565b82818337600083830152505050565b600062000ec162000ebb8462000e65565b62000e37565b90508281526020810184848401111562000ee05762000edf62000e60565b5b62000eed84828562000e9b565b509392505050565b600082601f83011262000f0d5762000f0c62000e5b565b5b813562000f1f84826020860162000eaa565b91505092915050565b60006040828403121562000f415762000f4062000dcd565b5b62000f4d604062000e37565b9050600082013567ffffffffffffffff81111562000f705762000f6f62000e56565b5b62000f7e8482850162000ef5565b600083015250602082013567ffffffffffffffff81111562000fa55762000fa462000e56565b5b62000fb38482850162000ef5565b60208301525092915050565b600080600080600060a0868803121562000fde5762000fdd62000af4565b5b600062000fee8882890162000ce7565b9550506020620010018882890162000b22565b9450506040620010148882890162000b22565b935050606086013567ffffffffffffffff81111562001038576200103762000af9565b5b620010468882890162000f28565b9250506080620010598882890162000ce7565b9150509295509295909350565b7f4e487b7100000000000000000000000000000000000000000000000000000000600052602260045260246000fd5b60006002820490506001821680620010ae57607f821691505b602082108103620010c457620010c362001066565b5b50919050565b600081519050620010db8162000b08565b92915050565b600060208284031215620010fa57620010f962000af4565b5b60006200110a84828501620010ca565b91505092915050565b7f555345522049534e275420484f53540000000000000000000000000000000000600082015250565b60006200114b600f8362000a20565b9150620011588262001113565b602082019050919050565b600060208201905081810360008301526200117e816200113c565b9050919050565b600082825260208201905092915050565b6000620011a38262000a15565b620011af818562001185565b9350620011c181856020860162000a31565b620011cc8162000a5d565b840191505092915050565b60006040830160008301518482036000860152620011f6828262001196565b9150506020830151848203602086015262001212828262001196565b9150508091505092915050565b600060a08201905062001236600083018862000b7f565b62001245602083018762000c9f565b62001254604083018662000c9f565b8181036060830152620012688185620011d7565b905062001279608083018462000b7f565b9695505050505050565b7f4e487b7100000000000000000000000000000000000000000000000000000000600052601160045260246000fd5b6000620012bf8262000afe565b9150620012cc8362000afe565b9250828201905080821115620012e757620012e662001283565b5b9291505056fe60806040523480156200001157600080fd5b5060405162001e9838038062001e98833981810160405281019062000037919062000430565b60648311156200007e576040517f08c379a000000000000000000000000000000000000000000000000000000000815260040162000075906200055e565b60405180910390fd5b84600260006101000a81548173ffffffffffffffffffffffffffffffffffffffff021916908373ffffffffffffffffffffffffffffffffffffffff1602179055504284620000cd9190620005af565b600181905550826000819055508160046000820151816000019081620000f491906200082b565b5060208201518160010190816200010c91906200082b565b5090505080600660006101000a81548173ffffffffffffffffffffffffffffffffffffffff021916908373ffffffffffffffffffffffffffffffffffffffff160217905550505050505062000912565b6000604051905090565b600080fd5b600080fd5b600073ffffffffffffffffffffffffffffffffffffffff82169050919050565b60006200019d8262000170565b9050919050565b620001af8162000190565b8114620001bb57600080fd5b50565b600081519050620001cf81620001a4565b92915050565b6000819050919050565b620001ea81620001d5565b8114620001f657600080fd5b50565b6000815190506200020a81620001df565b92915050565b600080fd5b6000601f19601f8301169050919050565b7f4e487b7100000000000000000000000000000000000000000000000000000000600052604160045260246000fd5b620002608262000215565b810181811067ffffffffffffffff8211171562000282576200028162000226565b5b80604052505050565b6000620002976200015c565b9050620002a5828262000255565b919050565b600080fd5b600080fd5b600080fd5b600067ffffffffffffffff821115620002d757620002d662000226565b5b620002e28262000215565b9050602081019050919050565b60005b838110156200030f578082015181840152602081019050620002f2565b60008484015250505050565b6000620003326200032c84620002b9565b6200028b565b905082815260208101848484011115620003515762000350620002b4565b5b6200035e848285620002ef565b509392505050565b600082601f8301126200037e576200037d620002af565b5b8151620003908482602086016200031b565b91505092915050565b600060408284031215620003b257620003b162000210565b5b620003be60406200028b565b9050600082015167ffffffffffffffff811115620003e157620003e0620002aa565b5b620003ef8482850162000366565b600083015250602082015167ffffffffffffffff811115620004165762000415620002aa565b5b620004248482850162000366565b60208301525092915050565b600080600080600060a086880312156200044f576200044e62000166565b5b60006200045f88828901620001be565b95505060206200047288828901620001f9565b94505060406200048588828901620001f9565b935050606086015167ffffffffffffffff811115620004a957620004a86200016b565b5b620004b78882890162000399565b9250506080620004ca88828901620001be565b9150509295509295909350565b600082825260208201905092915050565b7f50657263656e746167652073686f756c64206265206265747765656e20302d3160008201527f3030000000000000000000000000000000000000000000000000000000000000602082015250565b600062000546602283620004d7565b91506200055382620004e8565b604082019050919050565b60006020820190508181036000830152620005798162000537565b9050919050565b7f4e487b7100000000000000000000000000000000000000000000000000000000600052601160045260246000fd5b6000620005bc82620001d5565b9150620005c983620001d5565b9250828201905080821115620005e457620005e362000580565b5b92915050565b600081519050919050565b7f4e487b7100000000000000000000000000000000000000000000000000000000600052602260045260246000fd5b600060028204905060018216806200063d57607f821691505b602082108103620006535762000652620005f5565b5b50919050565b60008190508160005260206000209050919050565b60006020601f8301049050919050565b600082821b905092915050565b600060088302620006bd7fffffffffffffffffffffffffffffffffffffffffffffffffffffffffffffffff826200067e565b620006c986836200067e565b95508019841693508086168417925050509392505050565b6000819050919050565b60006200070c620007066200070084620001d5565b620006e1565b620001d5565b9050919050565b6000819050919050565b6200072883620006eb565b62000740620007378262000713565b8484546200068b565b825550505050565b600090565b6200075762000748565b620007648184846200071d565b505050565b5b818110156200078c57620007806000826200074d565b6001810190506200076a565b5050565b601f821115620007db57620007a58162000659565b620007b0846200066e565b81016020851015620007c0578190505b620007d8620007cf856200066e565b83018262000769565b50505b505050565b600082821c905092915050565b60006200080060001984600802620007e0565b1980831691505092915050565b60006200081b8383620007ed565b9150826002028217905092915050565b6200083682620005ea565b67ffffffffffffffff81111562000852576200085162000226565b5b6200085e825462000624565b6200086b82828562000790565b600060209050601f831160018114620008a357600084156200088e578287015190505b6200089a85826200080d565b8655506200090a565b601f198416620008b38662000659565b60005b82811015620008dd57848901518255600182019150602085019450602081019050620008b6565b86831015620008fd5784890151620008f9601f891682620007ed565b8355505b6001600288020188555050505b505050505050565b61157680620009226000396000f3fe6080604052600436106100e15760003560e01c8063a546d8fa1161007f578063d71e10ac11610059578063d71e10ac14610265578063d9fca7691461026f578063dfbf53ae14610298578063f437bc59146102c3576100e8565b8063a546d8fa14610205578063aa1b98b114610230578063d0e30db01461025b576100e8565b80633ccfd60b116100bb5780633ccfd60b1461016f57806347ccca02146101865780635da4a1d3146101b157806392270ffe146101da576100e8565b8063123d9482146100ed5780632f254e96146101195780633197cbb614610144576100e8565b366100e857005b600080fd5b3480156100f957600080fd5b506101026102ee565b604051610110929190610d47565b60405180910390f35b34801561012557600080fd5b5061012e610410565b60405161013b9190610d97565b60405180910390f35b34801561015057600080fd5b50610159610416565b6040516101669190610d97565b60405180910390f35b34801561017b57600080fd5b5061018461041c565b005b34801561019257600080fd5b5061019b610596565b6040516101a89190610e31565b60405180910390f35b3480156101bd57600080fd5b506101d860048036038101906101d39190610e7d565b6105bc565b005b3480156101e657600080fd5b506101ef610656565b6040516101fc9190610ec5565b60405180910390f35b34801561021157600080fd5b5061021a610669565b6040516102279190610ec5565b60405180910390f35b34801561023c57600080fd5b5061024561067c565b6040516102529190610ec5565b60405180910390f35b61026361068f565b005b61026d6108a8565b005b34801561027b57600080fd5b5061029660048036038101906102919190610f1e565b610b26565b005b3480156102a457600080fd5b506102ad610c3f565b6040516102ba9190610f5a565b60405180910390f35b3480156102cf57600080fd5b506102d8610c65565b6040516102e59190610f5a565b60405180910390f35b60048060000180546102ff90610fa4565b80601f016020809104026020016040519081016040528092919081815260200182805461032b90610fa4565b80156103785780601f1061034d57610100808354040283529160200191610378565b820191906000526020600020905b81548152906001019060200180831161035b57829003601f168201915b50505050509080600101805461038d90610fa4565b80601f01602080910402602001604051908101604052809291908181526020018280546103b990610fa4565b80156104065780601f106103db57610100808354040283529160200191610406565b820191906000526020600020905b8154815290600101906020018083116103e957829003601f168201915b5050505050905082565b60005481565b60015481565b600260009054906101000a900473ffffffffffffffffffffffffffffffffffffffff1673ffffffffffffffffffffffffffffffffffffffff163373ffffffffffffffffffffffffffffffffffffffff16146104ac576040517f08c379a00000000000000000000000000000000000000000000000000000000081526004016104a39061106d565b60405180910390fd5b600360149054906101000a900460ff166104fb576040517f08c379a00000000000000000000000000000000000000000000000000000000081526004016104f2906110ff565b60405180910390fd5b6000600260009054906101000a900473ffffffffffffffffffffffffffffffffffffffff1673ffffffffffffffffffffffffffffffffffffffff164760405161054390611150565b60006040518083038185875af1925050503d8060008114610580576040519150601f19603f3d011682016040523d82523d6000602084013e610585565b606091505b505090508061059357600080fd5b50565b600660009054906101000a900473ffffffffffffffffffffffffffffffffffffffff1681565b600260009054906101000a900473ffffffffffffffffffffffffffffffffffffffff1673ffffffffffffffffffffffffffffffffffffffff163373ffffffffffffffffffffffffffffffffffffffff161461064c576040517f08c379a00000000000000000000000000000000000000000000000000000000081526004016106439061106d565b60405180910390fd5b8060008190555050565b600360159054906101000a900460ff1681565b600360169054906101000a900460ff1681565b600360149054906101000a900460ff1681565b6000600660009054906101000a900473ffffffffffffffffffffffffffffffffffffffff1673ffffffffffffffffffffffffffffffffffffffff166370a08231336040518263ffffffff1660e01b81526004016106ec9190610f5a565b602060405180830381865afa158015610709573d6000803e3d6000fd5b505050506040513d601f19601f8201168201806040525081019061072d919061117a565b1161076d576040517f08c379a000000000000000000000000000000000000000000000000000000000815260040161076490611219565b60405180910390fd5b60015442106107b1576040517f08c379a00000000000000000000000000000000000000000000000000000000081526004016107a890611285565b60405180910390fd5b600034116107f4576040517f08c379a00000000000000000000000000000000000000000000000000000000081526004016107eb90611317565b60405180910390fd5b60003073ffffffffffffffffffffffffffffffffffffffff163460405161081a90611150565b60006040518083038185875af1925050503d8060008114610857576040519150601f19603f3d011682016040523d82523d6000602084013e61085c565b606091505b505090508061086a57600080fd5b7f8752a472e571a816aea92eec8dae9baf628e840f4929fbcc2d155e6233ff68a733303460405161089d93929190611337565b60405180910390a150565b600260009054906101000a900473ffffffffffffffffffffffffffffffffffffffff1673ffffffffffffffffffffffffffffffffffffffff163373ffffffffffffffffffffffffffffffffffffffff1614610938576040517f08c379a000000000000000000000000000000000000000000000000000000000815260040161092f9061106d565b60405180910390fd5b60015442101561097d576040517f08c379a0000000000000000000000000000000000000000000000000000000008152600401610974906113ba565b60405180910390fd5b600360159054906101000a900460ff16156109cd576040517f08c379a00000000000000000000000000000000000000000000000000000000081526004016109c490611426565b60405180910390fd5b60004790507f0f3b0d2acf15f78ac823ca8ecc6eedae40d58383feade6b630311d3898ff5096600360009054906101000a900473ffffffffffffffffffffffffffffffffffffffff1682604051610a25929190611446565b60405180910390a16000600360009054906101000a900473ffffffffffffffffffffffffffffffffffffffff1673ffffffffffffffffffffffffffffffffffffffff16610a906064610a8260005486610c8b90919063ffffffff16565b610ca190919063ffffffff16565b604051610a9c90611150565b60006040518083038185875af1925050503d8060008114610ad9576040519150601f19603f3d011682016040523d82523d6000602084013e610ade565b606091505b5050905080610aec57600080fd5b6001600360146101000a81548160ff0219169083151502179055506001600360156101000a81548160ff0219169083151502179055505050565b600260009054906101000a900473ffffffffffffffffffffffffffffffffffffffff1673ffffffffffffffffffffffffffffffffffffffff163373ffffffffffffffffffffffffffffffffffffffff1614610bb6576040517f08c379a0000000000000000000000000000000000000000000000000000000008152600401610bad9061106d565b60405180910390fd5b600154421015610bfb576040517f08c379a0000000000000000000000000000000000000000000000000000000008152600401610bf2906113ba565b60405180910390fd5b80600360006101000a81548173ffffffffffffffffffffffffffffffffffffffff021916908373ffffffffffffffffffffffffffffffffffffffff16021790555050565b600360009054906101000a900473ffffffffffffffffffffffffffffffffffffffff1681565b600260009054906101000a900473ffffffffffffffffffffffffffffffffffffffff1681565b60008183610c99919061149e565b905092915050565b60008183610caf919061150f565b905092915050565b600081519050919050565b600082825260208201905092915050565b60005b83811015610cf1578082015181840152602081019050610cd6565b60008484015250505050565b6000601f19601f8301169050919050565b6000610d1982610cb7565b610d238185610cc2565b9350610d33818560208601610cd3565b610d3c81610cfd565b840191505092915050565b60006040820190508181036000830152610d618185610d0e565b90508181036020830152610d758184610d0e565b90509392505050565b6000819050919050565b610d9181610d7e565b82525050565b6000602082019050610dac6000830184610d88565b92915050565b600073ffffffffffffffffffffffffffffffffffffffff82169050919050565b6000819050919050565b6000610df7610df2610ded84610db2565b610dd2565b610db2565b9050919050565b6000610e0982610ddc565b9050919050565b6000610e1b82610dfe565b9050919050565b610e2b81610e10565b82525050565b6000602082019050610e466000830184610e22565b92915050565b600080fd5b610e5a81610d7e565b8114610e6557600080fd5b50565b600081359050610e7781610e51565b92915050565b600060208284031215610e9357610e92610e4c565b5b6000610ea184828501610e68565b91505092915050565b60008115159050919050565b610ebf81610eaa565b82525050565b6000602082019050610eda6000830184610eb6565b92915050565b6000610eeb82610db2565b9050919050565b610efb81610ee0565b8114610f0657600080fd5b50565b600081359050610f1881610ef2565b92915050565b600060208284031215610f3457610f33610e4c565b5b6000610f4284828501610f09565b91505092915050565b610f5481610ee0565b82525050565b6000602082019050610f6f6000830184610f4b565b92915050565b7f4e487b7100000000000000000000000000000000000000000000000000000000600052602260045260246000fd5b60006002820490506001821680610fbc57607f821691505b602082108103610fcf57610fce610f75565b5b50919050565b7f4f6e6c792074686520686f73742063616e206772616e7420746865207072697a60008201527f6520616e64207472616e7366657220697420746f207468652077696e6e65722060208201527f6f662074686520746f75726e616d656e74000000000000000000000000000000604082015250565b6000611057605183610cc2565b915061106282610fd5565b606082019050919050565b600060208201905081810360008301526110868161104a565b9050919050565b7f46697273746c792073686f756c642063616c6c206772616e745072697a65206660008201527f756e6374696f6e00000000000000000000000000000000000000000000000000602082015250565b60006110e9602783610cc2565b91506110f48261108d565b604082019050919050565b60006020820190508181036000830152611118816110dc565b9050919050565b600081905092915050565b50565b600061113a60008361111f565b91506111458261112a565b600082019050919050565b600061115b8261112d565b9150819050919050565b60008151905061117481610e51565b92915050565b6000602082840312156111905761118f610e4c565b5b600061119e84828501611165565b91505092915050565b7f4f6e6c792074686520757365722077686f20686173206e66742063616e20616360008201527f6365737320746869732066756e6374696f6e0000000000000000000000000000602082015250565b6000611203603283610cc2565b915061120e826111a7565b604082019050919050565b60006020820190508181036000830152611232816111f6565b9050919050565b7f546f75726e616d656e7420656e64656400000000000000000000000000000000600082015250565b600061126f601083610cc2565b915061127a82611239565b602082019050919050565b6000602082019050818103600083015261129e81611262565b9050919050565b7f596f75722076616c75652073686f756c6420626520677265617465722074686160008201527f6e20300000000000000000000000000000000000000000000000000000000000602082015250565b6000611301602383610cc2565b915061130c826112a5565b604082019050919050565b60006020820190508181036000830152611330816112f4565b9050919050565b600060608201905061134c6000830186610f4b565b6113596020830185610f4b565b6113666040830184610d88565b949350505050565b7f546f75726e616d656e74206861736e277420656e646564207965740000000000600082015250565b60006113a4601b83610cc2565b91506113af8261136e565b602082019050919050565b600060208201905081810360008301526113d381611397565b9050919050565b7f416c72656164792073656e74207072697a6520746f207468652077696e6e6572600082015250565b6000611410602083610cc2565b915061141b826113da565b602082019050919050565b6000602082019050818103600083015261143f81611403565b9050919050565b600060408201905061145b6000830185610f4b565b6114686020830184610d88565b9392505050565b7f4e487b7100000000000000000000000000000000000000000000000000000000600052601160045260246000fd5b60006114a982610d7e565b91506114b483610d7e565b92508282026114c281610d7e565b915082820484148315176114d9576114d861146f565b5b5092915050565b7f4e487b7100000000000000000000000000000000000000000000000000000000600052601260045260246000fd5b600061151a82610d7e565b915061152583610d7e565b925082611535576115346114e0565b5b82820490509291505056fea264697066735822122054c175de383bc2c24e2ddea5d599a41afef6356c3095f15badc06e08f85e1c0f64736f6c63430008130033a2646970667358221220daeca22284fc03917642c3b1c3f0451ba7aa3d514a6d2db56146be2e9f10d79f64736f6c63430008130033",
  "linkReferences": {},
  "deployedLinkReferences": {}
}