{
  "_format": "hh-sol-artifact-1",
  "contractName": "HostNFT",
  "sourceName": "contracts/HostNFT.sol",
  "abi": [
    {
      "inputs": [
        {
          "internalType": "address",
          "name": "_hostFactory",
          "type": "address"
        }
      ],
      "stateMutability": "nonpayable",
      "type": "constructor"
    },
    {
      "anonymous": false,
      "inputs": [
        {
          "indexed": true,
          "internalType": "address",
          "name": "owner",
          "type": "address"
        },
        {
          "indexed": true,
          "internalType": "address",
          "name": "approved",
          "type": "address"
        },
        {
          "indexed": true,
          "internalType": "uint256",
          "name": "tokenId",
          "type": "uint256"
        }
      ],
      "name": "Approval",
      "type": "event"
    },
    {
      "anonymous": false,
      "inputs": [
        {
          "indexed": true,
          "internalType": "address",
          "name": "owner",
          "type": "address"
        },
        {
          "indexed": true,
          "internalType": "address",
          "name": "operator",
          "type": "address"
        },
        {
          "indexed": false,
          "internalType": "bool",
          "name": "approved",
          "type": "bool"
        }
      ],
      "name": "ApprovalForAll",
      "type": "event"
    },
    {
      "anonymous": false,
      "inputs": [
        {
          "indexed": true,
          "internalType": "bytes32",
          "name": "role",
          "type": "bytes32"
        },
        {
          "indexed": true,
          "internalType": "bytes32",
          "name": "previousAdminRole",
          "type": "bytes32"
        },
        {
          "indexed": true,
          "internalType": "bytes32",
          "name": "newAdminRole",
          "type": "bytes32"
        }
      ],
      "name": "RoleAdminChanged",
      "type": "event"
    },
    {
      "anonymous": false,
      "inputs": [
        {
          "indexed": true,
          "internalType": "bytes32",
          "name": "role",
          "type": "bytes32"
        },
        {
          "indexed": true,
          "internalType": "address",
          "name": "account",
          "type": "address"
        },
        {
          "indexed": true,
          "internalType": "address",
          "name": "sender",
          "type": "address"
        }
      ],
      "name": "RoleGranted",
      "type": "event"
    },
    {
      "anonymous": false,
      "inputs": [
        {
          "indexed": true,
          "internalType": "bytes32",
          "name": "role",
          "type": "bytes32"
        },
        {
          "indexed": true,
          "internalType": "address",
          "name": "account",
          "type": "address"
        },
        {
          "indexed": true,
          "internalType": "address",
          "name": "sender",
          "type": "address"
        }
      ],
      "name": "RoleRevoked",
      "type": "event"
    },
    {
      "anonymous": false,
      "inputs": [
        {
          "indexed": true,
          "internalType": "address",
          "name": "from",
          "type": "address"
        },
        {
          "indexed": true,
          "internalType": "address",
          "name": "to",
          "type": "address"
        },
        {
          "indexed": true,
          "internalType": "uint256",
          "name": "tokenId",
          "type": "uint256"
        }
      ],
      "name": "Transfer",
      "type": "event"
    },
    {
      "inputs": [],
      "name": "BURNER_ROLE",
      "outputs": [
        {
          "internalType": "bytes32",
          "name": "",
          "type": "bytes32"
        }
      ],
      "stateMutability": "view",
      "type": "function"
    },
    {
      "inputs": [],
      "name": "DEFAULT_ADMIN_ROLE",
      "outputs": [
        {
          "internalType": "bytes32",
          "name": "",
          "type": "bytes32"
        }
      ],
      "stateMutability": "view",
      "type": "function"
    },
    {
      "inputs": [],
      "name": "MINTER_ROLE",
      "outputs": [
        {
          "internalType": "bytes32",
          "name": "",
          "type": "bytes32"
        }
      ],
      "stateMutability": "view",
      "type": "function"
    },
    {
      "inputs": [
        {
          "internalType": "address",
          "name": "to",
          "type": "address"
        },
        {
          "internalType": "uint256",
          "name": "tokenId",
          "type": "uint256"
        }
      ],
      "name": "approve",
      "outputs": [],
      "stateMutability": "nonpayable",
      "type": "function"
    },
    {
      "inputs": [
        {
          "internalType": "address",
          "name": "owner",
          "type": "address"
        }
      ],
      "name": "balanceOf",
      "outputs": [
        {
          "internalType": "uint256",
          "name": "",
          "type": "uint256"
        }
      ],
      "stateMutability": "view",
      "type": "function"
    },
    {
      "inputs": [],
      "name": "creator",
      "outputs": [
        {
          "internalType": "address",
          "name": "",
          "type": "address"
        }
      ],
      "stateMutability": "view",
      "type": "function"
    },
    {
      "inputs": [
        {
          "internalType": "uint256",
          "name": "tokenId",
          "type": "uint256"
        }
      ],
      "name": "getApproved",
      "outputs": [
        {
          "internalType": "address",
          "name": "",
          "type": "address"
        }
      ],
      "stateMutability": "view",
      "type": "function"
    },
    {
      "inputs": [
        {
          "internalType": "uint256",
          "name": "id",
          "type": "uint256"
        }
      ],
      "name": "getHostDetail",
      "outputs": [
        {
          "components": [
            {
              "internalType": "string",
              "name": "username",
              "type": "string"
            },
            {
              "internalType": "string",
              "name": "email",
              "type": "string"
            },
            {
              "internalType": "string",
              "name": "phone_number",
              "type": "string"
            },
            {
              "internalType": "uint256[]",
              "name": "tournamentIds",
              "type": "uint256[]"
            }
          ],
          "internalType": "struct HostDetails",
          "name": "",
          "type": "tuple"
        }
      ],
      "stateMutability": "view",
      "type": "function"
    },
    {
      "inputs": [
        {
          "internalType": "bytes32",
          "name": "role",
          "type": "bytes32"
        }
      ],
      "name": "getRoleAdmin",
      "outputs": [
        {
          "internalType": "bytes32",
          "name": "",
          "type": "bytes32"
        }
      ],
      "stateMutability": "view",
      "type": "function"
    },
    {
      "inputs": [
        {
          "internalType": "bytes32",
          "name": "role",
          "type": "bytes32"
        },
        {
          "internalType": "address",
          "name": "account",
          "type": "address"
        }
      ],
      "name": "grantRole",
      "outputs": [],
      "stateMutability": "nonpayable",
      "type": "function"
    },
    {
      "inputs": [
        {
          "internalType": "bytes32",
          "name": "role",
          "type": "bytes32"
        },
        {
          "internalType": "address",
          "name": "account",
          "type": "address"
        }
      ],
      "name": "hasRole",
      "outputs": [
        {
          "internalType": "bool",
          "name": "",
          "type": "bool"
        }
      ],
      "stateMutability": "view",
      "type": "function"
    },
    {
      "inputs": [
        {
          "internalType": "uint256",
          "name": "tokenId",
          "type": "uint256"
        }
      ],
      "name": "hostBurn",
      "outputs": [],
      "stateMutability": "nonpayable",
      "type": "function"
    },
    {
      "inputs": [
        {
          "internalType": "uint256",
          "name": "",
          "type": "uint256"
        }
      ],
      "name": "hostDetails",
      "outputs": [
        {
          "internalType": "string",
          "name": "username",
          "type": "string"
        },
        {
          "internalType": "string",
          "name": "email",
          "type": "string"
        },
        {
          "internalType": "string",
          "name": "phone_number",
          "type": "string"
        }
      ],
      "stateMutability": "view",
      "type": "function"
    },
    {
      "inputs": [
        {
          "internalType": "address",
          "name": "to",
          "type": "address"
        },
        {
          "internalType": "string",
          "name": "_username",
          "type": "string"
        },
        {
          "internalType": "string",
          "name": "_email",
          "type": "string"
        },
        {
          "internalType": "string",
          "name": "_phone_number",
          "type": "string"
        }
      ],
      "name": "hostMint",
      "outputs": [
        {
          "internalType": "uint256",
          "name": "",
          "type": "uint256"
        }
      ],
      "stateMutability": "nonpayable",
      "type": "function"
    },
    {
      "inputs": [
        {
          "internalType": "address",
          "name": "owner",
          "type": "address"
        },
        {
          "internalType": "address",
          "name": "operator",
          "type": "address"
        }
      ],
      "name": "isApprovedForAll",
      "outputs": [
        {
          "internalType": "bool",
          "name": "",
          "type": "bool"
        }
      ],
      "stateMutability": "view",
      "type": "function"
    },
    {
      "inputs": [],
      "name": "name",
      "outputs": [
        {
          "internalType": "string",
          "name": "",
          "type": "string"
        }
      ],
      "stateMutability": "view",
      "type": "function"
    },
    {
      "inputs": [
        {
          "internalType": "uint256",
          "name": "tokenId",
          "type": "uint256"
        }
      ],
      "name": "ownerOf",
      "outputs": [
        {
          "internalType": "address",
          "name": "",
          "type": "address"
        }
      ],
      "stateMutability": "view",
      "type": "function"
    },
    {
      "inputs": [
        {
          "internalType": "bytes32",
          "name": "role",
          "type": "bytes32"
        },
        {
          "internalType": "address",
          "name": "account",
          "type": "address"
        }
      ],
      "name": "renounceRole",
      "outputs": [],
      "stateMutability": "nonpayable",
      "type": "function"
    },
    {
      "inputs": [
        {
          "internalType": "bytes32",
          "name": "role",
          "type": "bytes32"
        },
        {
          "internalType": "address",
          "name": "account",
          "type": "address"
        }
      ],
      "name": "revokeRole",
      "outputs": [],
      "stateMutability": "nonpayable",
      "type": "function"
    },
    {
      "inputs": [
        {
          "internalType": "address",
          "name": "from",
          "type": "address"
        },
        {
          "internalType": "address",
          "name": "to",
          "type": "address"
        },
        {
          "internalType": "uint256",
          "name": "tokenId",
          "type": "uint256"
        }
      ],
      "name": "safeTransferFrom",
      "outputs": [],
      "stateMutability": "nonpayable",
      "type": "function"
    },
    {
      "inputs": [
        {
          "internalType": "address",
          "name": "from",
          "type": "address"
        },
        {
          "internalType": "address",
          "name": "to",
          "type": "address"
        },
        {
          "internalType": "uint256",
          "name": "tokenId",
          "type": "uint256"
        },
        {
          "internalType": "bytes",
          "name": "data",
          "type": "bytes"
        }
      ],
      "name": "safeTransferFrom",
      "outputs": [],
      "stateMutability": "nonpayable",
      "type": "function"
    },
    {
      "inputs": [
        {
          "internalType": "address",
          "name": "operator",
          "type": "address"
        },
        {
          "internalType": "bool",
          "name": "approved",
          "type": "bool"
        }
      ],
      "name": "setApprovalForAll",
      "outputs": [],
      "stateMutability": "nonpayable",
      "type": "function"
    },
    {
      "inputs": [
        {
          "internalType": "bytes4",
          "name": "interfaceId",
          "type": "bytes4"
        }
      ],
      "name": "supportsInterface",
      "outputs": [
        {
          "internalType": "bool",
          "name": "",
          "type": "bool"
        }
      ],
      "stateMutability": "view",
      "type": "function"
    },
    {
      "inputs": [],
      "name": "symbol",
      "outputs": [
        {
          "internalType": "string",
          "name": "",
          "type": "string"
        }
      ],
      "stateMutability": "view",
      "type": "function"
    },
    {
      "inputs": [
        {
          "internalType": "uint256",
          "name": "tokenId",
          "type": "uint256"
        }
      ],
      "name": "tokenURI",
      "outputs": [
        {
          "internalType": "string",
          "name": "",
          "type": "string"
        }
      ],
      "stateMutability": "view",
      "type": "function"
    },
    {
      "inputs": [
        {
          "internalType": "address",
          "name": "from",
          "type": "address"
        },
        {
          "internalType": "address",
          "name": "to",
          "type": "address"
        },
        {
          "internalType": "uint256",
          "name": "tokenId",
          "type": "uint256"
        }
      ],
      "name": "transferFrom",
      "outputs": [],
      "stateMutability": "nonpayable",
      "type": "function"
    }
  ],
  "bytecode": "0x60806040523480156200001157600080fd5b50604051620045fe380380620045fe833981810160405281019062000037919062000359565b6040518060400160405280600781526020017f486f73744e4654000000000000000000000000000000000000000000000000008152506040518060400160405280600481526020017f484f5354000000000000000000000000000000000000000000000000000000008152508160009081620000b4919062000605565b508060019081620000c6919062000605565b505050620000de6000801b826200018a60201b60201c565b620001107f3c11d16cbaffd01df69ce1c404f6340ee057498f5f00246190ea54220576a848826200018a60201b60201c565b620001427f9f2df0fed2c77648de5860a4cc508cd0818c85b8b8a1ab4ceeef8d981c8956a6826200018a60201b60201c565b33600760006101000a81548173ffffffffffffffffffffffffffffffffffffffff021916908373ffffffffffffffffffffffffffffffffffffffff16021790555050620006ec565b6200019c82826200027c60201b60201c565b620002785760016006600084815260200190815260200160002060000160008373ffffffffffffffffffffffffffffffffffffffff1673ffffffffffffffffffffffffffffffffffffffff16815260200190815260200160002060006101000a81548160ff0219169083151502179055506200021d620002e760201b60201c565b73ffffffffffffffffffffffffffffffffffffffff168173ffffffffffffffffffffffffffffffffffffffff16837f2f8788117e7eff1d82e926ec794901d17c78024a50270940304540a733656f0d60405160405180910390a45b5050565b60006006600084815260200190815260200160002060000160008373ffffffffffffffffffffffffffffffffffffffff1673ffffffffffffffffffffffffffffffffffffffff16815260200190815260200160002060009054906101000a900460ff16905092915050565b600033905090565b600080fd5b600073ffffffffffffffffffffffffffffffffffffffff82169050919050565b60006200032182620002f4565b9050919050565b620003338162000314565b81146200033f57600080fd5b50565b600081519050620003538162000328565b92915050565b600060208284031215620003725762000371620002ef565b5b6000620003828482850162000342565b91505092915050565b600081519050919050565b7f4e487b7100000000000000000000000000000000000000000000000000000000600052604160045260246000fd5b7f4e487b7100000000000000000000000000000000000000000000000000000000600052602260045260246000fd5b600060028204905060018216806200040d57607f821691505b602082108103620004235762000422620003c5565b5b50919050565b60008190508160005260206000209050919050565b60006020601f8301049050919050565b600082821b905092915050565b6000600883026200048d7fffffffffffffffffffffffffffffffffffffffffffffffffffffffffffffffff826200044e565b6200049986836200044e565b95508019841693508086168417925050509392505050565b6000819050919050565b6000819050919050565b6000620004e6620004e0620004da84620004b1565b620004bb565b620004b1565b9050919050565b6000819050919050565b6200050283620004c5565b6200051a6200051182620004ed565b8484546200045b565b825550505050565b600090565b6200053162000522565b6200053e818484620004f7565b505050565b5b8181101562000566576200055a60008262000527565b60018101905062000544565b5050565b601f821115620005b5576200057f8162000429565b6200058a846200043e565b810160208510156200059a578190505b620005b2620005a9856200043e565b83018262000543565b50505b505050565b600082821c905092915050565b6000620005da60001984600802620005ba565b1980831691505092915050565b6000620005f58383620005c7565b9150826002028217905092915050565b62000610826200038b565b67ffffffffffffffff8111156200062c576200062b62000396565b5b620006388254620003f4565b620006458282856200056a565b600060209050601f8311600181146200067d576000841562000668578287015190505b620006748582620005e7565b865550620006e4565b601f1984166200068d8662000429565b60005b82811015620006b75784890151825560018201915060208501945060208101905062000690565b86831015620006d75784890151620006d3601f891682620005c7565b8355505b6001600288020188555050505b505050505050565b613f0280620006fc6000396000f3fe608060405234801561001057600080fd5b506004361061018e5760003560e01c806370a08231116100de578063b88d4fde11610097578063d539139311610071578063d5391393146104bb578063d547741f146104d9578063e985e9c5146104f5578063f1d31e60146105255761018e565b8063b88d4fde1461043d578063c28dc4ed14610459578063c87b56dd1461048b5761018e565b806370a08231146103695780637e5c71251461039957806391d14854146103b557806395d89b41146103e5578063a217fddf14610403578063a22cb465146104215761018e565b8063248a9ca31161014b57806336568abe1161012557806336568abe146102d157806342842e0e146102ed5780636352211e1461030957806370198234146103395761018e565b8063248a9ca314610267578063282c51f3146102975780632f2ff15d146102b55761018e565b806301ffc9a71461019357806302d05d3f146101c357806306fdde03146101e1578063081812fc146101ff578063095ea7b31461022f57806323b872dd1461024b575b600080fd5b6101ad60048036038101906101a8919061289c565b610555565b6040516101ba91906128e4565b60405180910390f35b6101cb610567565b6040516101d89190612940565b60405180910390f35b6101e961058d565b6040516101f691906129eb565b60405180910390f35b61021960048036038101906102149190612a43565b61061f565b6040516102269190612940565b60405180910390f35b61024960048036038101906102449190612a9c565b610665565b005b61026560048036038101906102609190612adc565b61077c565b005b610281600480360381019061027c9190612b65565b6107dc565b60405161028e9190612ba1565b60405180910390f35b61029f6107fc565b6040516102ac9190612ba1565b60405180910390f35b6102cf60048036038101906102ca9190612bbc565b610820565b005b6102eb60048036038101906102e69190612bbc565b610841565b005b61030760048036038101906103029190612adc565b6108c4565b005b610323600480360381019061031e9190612a43565b6108e4565b6040516103309190612940565b60405180910390f35b610353600480360381019061034e9190612a43565b61096a565b6040516103609190612d7c565b60405180910390f35b610383600480360381019061037e9190612d9e565b610bb4565b6040516103909190612dda565b60405180910390f35b6103b360048036038101906103ae9190612a43565b610c6b565b005b6103cf60048036038101906103ca9190612bbc565b610ca2565b6040516103dc91906128e4565b60405180910390f35b6103ed610d0d565b6040516103fa91906129eb565b60405180910390f35b61040b610d9f565b6040516104189190612ba1565b60405180910390f35b61043b60048036038101906104369190612e21565b610da6565b005b61045760048036038101906104529190612f96565b610dbc565b005b610473600480360381019061046e9190612a43565b610e1e565b60405161048293929190613019565b60405180910390f35b6104a560048036038101906104a09190612a43565b610ff0565b6040516104b291906129eb565b60405180910390f35b6104c3611058565b6040516104d09190612ba1565b60405180910390f35b6104f360048036038101906104ee9190612bbc565b61107c565b005b61050f600480360381019061050a9190613065565b61109d565b60405161051c91906128e4565b60405180910390f35b61053f600480360381019061053a9190613146565b611131565b60405161054c9190612dda565b60405180910390f35b60006105608261123d565b9050919050565b600760009054906101000a900473ffffffffffffffffffffffffffffffffffffffff1681565b60606000805461059c90613230565b80601f01602080910402602001604051908101604052809291908181526020018280546105c890613230565b80156106155780601f106105ea57610100808354040283529160200191610615565b820191906000526020600020905b8154815290600101906020018083116105f857829003601f168201915b5050505050905090565b600061062a826112b7565b6004600083815260200190815260200160002060009054906101000a900473ffffffffffffffffffffffffffffffffffffffff169050919050565b6000610670826108e4565b90508073ffffffffffffffffffffffffffffffffffffffff168373ffffffffffffffffffffffffffffffffffffffff16036106e0576040517f08c379a00000000000000000000000000000000000000000000000000000000081526004016106d7906132d3565b60405180910390fd5b8073ffffffffffffffffffffffffffffffffffffffff166106ff611302565b73ffffffffffffffffffffffffffffffffffffffff16148061072e575061072d81610728611302565b61109d565b5b61076d576040517f08c379a000000000000000000000000000000000000000000000000000000000815260040161076490613365565b60405180910390fd5b610777838361130a565b505050565b61078d610787611302565b826113c3565b6107cc576040517f08c379a00000000000000000000000000000000000000000000000000000000081526004016107c3906133f7565b60405180910390fd5b6107d7838383611458565b505050565b600060066000838152602001908152602001600020600101549050919050565b7f3c11d16cbaffd01df69ce1c404f6340ee057498f5f00246190ea54220576a84881565b610829826107dc565b61083281611751565b61083c8383611765565b505050565b610849611302565b73ffffffffffffffffffffffffffffffffffffffff168173ffffffffffffffffffffffffffffffffffffffff16146108b6576040517f08c379a00000000000000000000000000000000000000000000000000000000081526004016108ad90613489565b60405180910390fd5b6108c08282611846565b5050565b6108df83838360405180602001604052806000815250610dbc565b505050565b6000806108f083611928565b9050600073ffffffffffffffffffffffffffffffffffffffff168173ffffffffffffffffffffffffffffffffffffffff1603610961576040517f08c379a0000000000000000000000000000000000000000000000000000000008152600401610958906134f5565b60405180910390fd5b80915050919050565b61097261279e565b6008828154811061098657610985613515565b5b90600052602060002090600402016040518060800160405290816000820180546109af90613230565b80601f01602080910402602001604051908101604052809291908181526020018280546109db90613230565b8015610a285780601f106109fd57610100808354040283529160200191610a28565b820191906000526020600020905b815481529060010190602001808311610a0b57829003601f168201915b50505050508152602001600182018054610a4190613230565b80601f0160208091040260200160405190810160405280929190818152602001828054610a6d90613230565b8015610aba5780601f10610a8f57610100808354040283529160200191610aba565b820191906000526020600020905b815481529060010190602001808311610a9d57829003601f168201915b50505050508152602001600282018054610ad390613230565b80601f0160208091040260200160405190810160405280929190818152602001828054610aff90613230565b8015610b4c5780601f10610b2157610100808354040283529160200191610b4c565b820191906000526020600020905b815481529060010190602001808311610b2f57829003601f168201915b5050505050815260200160038201805480602002602001604051908101604052809291908181526020018280548015610ba457602002820191906000526020600020905b815481526020019060010190808311610b90575b5050505050815250509050919050565b60008073ffffffffffffffffffffffffffffffffffffffff168273ffffffffffffffffffffffffffffffffffffffff1603610c24576040517f08c379a0000000000000000000000000000000000000000000000000000000008152600401610c1b906135b6565b60405180910390fd5b600360008373ffffffffffffffffffffffffffffffffffffffff1673ffffffffffffffffffffffffffffffffffffffff168152602001908152602001600020549050919050565b7f3c11d16cbaffd01df69ce1c404f6340ee057498f5f00246190ea54220576a848610c9581611751565b610c9e82611965565b5050565b60006006600084815260200190815260200160002060000160008373ffffffffffffffffffffffffffffffffffffffff1673ffffffffffffffffffffffffffffffffffffffff16815260200190815260200160002060009054906101000a900460ff16905092915050565b606060018054610d1c90613230565b80601f0160208091040260200160405190810160405280929190818152602001828054610d4890613230565b8015610d955780601f10610d6a57610100808354040283529160200191610d95565b820191906000526020600020905b815481529060010190602001808311610d7857829003601f168201915b5050505050905090565b6000801b81565b610db8610db1611302565b8383611ab3565b5050565b610dcd610dc7611302565b836113c3565b610e0c576040517f08c379a0000000000000000000000000000000000000000000000000000000008152600401610e03906133f7565b60405180910390fd5b610e1884848484611c1f565b50505050565b60088181548110610e2e57600080fd5b9060005260206000209060040201600091509050806000018054610e5190613230565b80601f0160208091040260200160405190810160405280929190818152602001828054610e7d90613230565b8015610eca5780601f10610e9f57610100808354040283529160200191610eca565b820191906000526020600020905b815481529060010190602001808311610ead57829003601f168201915b505050505090806001018054610edf90613230565b80601f0160208091040260200160405190810160405280929190818152602001828054610f0b90613230565b8015610f585780601f10610f2d57610100808354040283529160200191610f58565b820191906000526020600020905b815481529060010190602001808311610f3b57829003601f168201915b505050505090806002018054610f6d90613230565b80601f0160208091040260200160405190810160405280929190818152602001828054610f9990613230565b8015610fe65780601f10610fbb57610100808354040283529160200191610fe6565b820191906000526020600020905b815481529060010190602001808311610fc957829003601f168201915b5050505050905083565b6060610ffb826112b7565b6000611005611c7b565b905060008151116110255760405180602001604052806000815250611050565b8061102f84611c92565b604051602001611040929190613612565b6040516020818303038152906040525b915050919050565b7f9f2df0fed2c77648de5860a4cc508cd0818c85b8b8a1ab4ceeef8d981c8956a681565b611085826107dc565b61108e81611751565b6110988383611846565b505050565b6000600560008473ffffffffffffffffffffffffffffffffffffffff1673ffffffffffffffffffffffffffffffffffffffff16815260200190815260200160002060008373ffffffffffffffffffffffffffffffffffffffff1673ffffffffffffffffffffffffffffffffffffffff16815260200190815260200160002060009054906101000a900460ff16905092915050565b60007f9f2df0fed2c77648de5860a4cc508cd0818c85b8b8a1ab4ceeef8d981c8956a661115d81611751565b60006111696009611d60565b90506111756009611d6e565b61117f8782611d84565b61118761279e565b868160000181905250858160200181905250848160400181905250600881908060018154018082558091505060019003906000526020600020906004020160009091909190915060008201518160000190816111e391906137e2565b5060208201518160010190816111f991906137e2565b50604082015181600201908161120f91906137e2565b50606082015181600301908051906020019061122c9291906127c6565b505050819350505050949350505050565b60007f7965db0b000000000000000000000000000000000000000000000000000000007bffffffffffffffffffffffffffffffffffffffffffffffffffffffff1916827bffffffffffffffffffffffffffffffffffffffffffffffffffffffff191614806112b057506112af82611da2565b5b9050919050565b6112c081611e84565b6112ff576040517f08c379a00000000000000000000000000000000000000000000000000000000081526004016112f6906134f5565b60405180910390fd5b50565b600033905090565b816004600083815260200190815260200160002060006101000a81548173ffffffffffffffffffffffffffffffffffffffff021916908373ffffffffffffffffffffffffffffffffffffffff160217905550808273ffffffffffffffffffffffffffffffffffffffff1661137d836108e4565b73ffffffffffffffffffffffffffffffffffffffff167f8c5be1e5ebec7d5bd14f71427d1e84f3dd0314c0f7b2291e5b200ac8c7c3b92560405160405180910390a45050565b6000806113cf836108e4565b90508073ffffffffffffffffffffffffffffffffffffffff168473ffffffffffffffffffffffffffffffffffffffff1614806114115750611410818561109d565b5b8061144f57508373ffffffffffffffffffffffffffffffffffffffff166114378461061f565b73ffffffffffffffffffffffffffffffffffffffff16145b91505092915050565b8273ffffffffffffffffffffffffffffffffffffffff16611478826108e4565b73ffffffffffffffffffffffffffffffffffffffff16146114ce576040517f08c379a00000000000000000000000000000000000000000000000000000000081526004016114c590613926565b60405180910390fd5b600073ffffffffffffffffffffffffffffffffffffffff168273ffffffffffffffffffffffffffffffffffffffff160361153d576040517f08c379a0000000000000000000000000000000000000000000000000000000008152600401611534906139b8565b60405180910390fd5b61154a8383836001611ec5565b8273ffffffffffffffffffffffffffffffffffffffff1661156a826108e4565b73ffffffffffffffffffffffffffffffffffffffff16146115c0576040517f08c379a00000000000000000000000000000000000000000000000000000000081526004016115b790613926565b60405180910390fd5b6004600082815260200190815260200160002060006101000a81549073ffffffffffffffffffffffffffffffffffffffff02191690556001600360008573ffffffffffffffffffffffffffffffffffffffff1673ffffffffffffffffffffffffffffffffffffffff168152602001908152602001600020600082825403925050819055506001600360008473ffffffffffffffffffffffffffffffffffffffff1673ffffffffffffffffffffffffffffffffffffffff16815260200190815260200160002060008282540192505081905550816002600083815260200190815260200160002060006101000a81548173ffffffffffffffffffffffffffffffffffffffff021916908373ffffffffffffffffffffffffffffffffffffffff160217905550808273ffffffffffffffffffffffffffffffffffffffff168473ffffffffffffffffffffffffffffffffffffffff167fddf252ad1be2c89b69c2b068fc378daa952ba7f163c4a11628f55a4df523b3ef60405160405180910390a461174c8383836001611ecb565b505050565b6117628161175d611302565b611ed1565b50565b61176f8282610ca2565b6118425760016006600084815260200190815260200160002060000160008373ffffffffffffffffffffffffffffffffffffffff1673ffffffffffffffffffffffffffffffffffffffff16815260200190815260200160002060006101000a81548160ff0219169083151502179055506117e7611302565b73ffffffffffffffffffffffffffffffffffffffff168173ffffffffffffffffffffffffffffffffffffffff16837f2f8788117e7eff1d82e926ec794901d17c78024a50270940304540a733656f0d60405160405180910390a45b5050565b6118508282610ca2565b156119245760006006600084815260200190815260200160002060000160008373ffffffffffffffffffffffffffffffffffffffff1673ffffffffffffffffffffffffffffffffffffffff16815260200190815260200160002060006101000a81548160ff0219169083151502179055506118c9611302565b73ffffffffffffffffffffffffffffffffffffffff168173ffffffffffffffffffffffffffffffffffffffff16837ff6391f5c32d9c69d2a47ea670b442974b53935d1edc7fd64eb21e047a839171b60405160405180910390a45b5050565b60006002600083815260200190815260200160002060009054906101000a900473ffffffffffffffffffffffffffffffffffffffff169050919050565b6000611970826108e4565b9050611980816000846001611ec5565b611989826108e4565b90506004600083815260200190815260200160002060006101000a81549073ffffffffffffffffffffffffffffffffffffffff02191690556001600360008373ffffffffffffffffffffffffffffffffffffffff1673ffffffffffffffffffffffffffffffffffffffff168152602001908152602001600020600082825403925050819055506002600083815260200190815260200160002060006101000a81549073ffffffffffffffffffffffffffffffffffffffff021916905581600073ffffffffffffffffffffffffffffffffffffffff168273ffffffffffffffffffffffffffffffffffffffff167fddf252ad1be2c89b69c2b068fc378daa952ba7f163c4a11628f55a4df523b3ef60405160405180910390a4611aaf816000846001611ecb565b5050565b8173ffffffffffffffffffffffffffffffffffffffff168373ffffffffffffffffffffffffffffffffffffffff1603611b21576040517f08c379a0000000000000000000000000000000000000000000000000000000008152600401611b1890613a24565b60405180910390fd5b80600560008573ffffffffffffffffffffffffffffffffffffffff1673ffffffffffffffffffffffffffffffffffffffff16815260200190815260200160002060008473ffffffffffffffffffffffffffffffffffffffff1673ffffffffffffffffffffffffffffffffffffffff16815260200190815260200160002060006101000a81548160ff0219169083151502179055508173ffffffffffffffffffffffffffffffffffffffff168373ffffffffffffffffffffffffffffffffffffffff167f17307eab39ab6107e8899845ad3d59bd9653f200f220920489ca2b5937696c3183604051611c1291906128e4565b60405180910390a3505050565b611c2a848484611458565b611c3684848484611f56565b611c75576040517f08c379a0000000000000000000000000000000000000000000000000000000008152600401611c6c90613ab6565b60405180910390fd5b50505050565b606060405180602001604052806000815250905090565b606060006001611ca1846120dd565b01905060008167ffffffffffffffff811115611cc057611cbf612e6b565b5b6040519080825280601f01601f191660200182016040528015611cf25781602001600182028036833780820191505090505b509050600082602001820190505b600115611d55578080600190039150507f3031323334353637383961626364656600000000000000000000000000000000600a86061a8153600a8581611d4957611d48613ad6565b5b04945060008503611d00575b819350505050919050565b600081600001549050919050565b6001816000016000828254019250508190555050565b611d9e828260405180602001604052806000815250612230565b5050565b60007f80ac58cd000000000000000000000000000000000000000000000000000000007bffffffffffffffffffffffffffffffffffffffffffffffffffffffff1916827bffffffffffffffffffffffffffffffffffffffffffffffffffffffff19161480611e6d57507f5b5e139f000000000000000000000000000000000000000000000000000000007bffffffffffffffffffffffffffffffffffffffffffffffffffffffff1916827bffffffffffffffffffffffffffffffffffffffffffffffffffffffff1916145b80611e7d5750611e7c8261228b565b5b9050919050565b60008073ffffffffffffffffffffffffffffffffffffffff16611ea683611928565b73ffffffffffffffffffffffffffffffffffffffff1614159050919050565b50505050565b50505050565b611edb8282610ca2565b611f5257611ee8816122f5565b611ef68360001c6020612322565b604051602001611f07929190613b9d565b6040516020818303038152906040526040517f08c379a0000000000000000000000000000000000000000000000000000000008152600401611f4991906129eb565b60405180910390fd5b5050565b6000611f778473ffffffffffffffffffffffffffffffffffffffff1661255e565b156120d0578373ffffffffffffffffffffffffffffffffffffffff1663150b7a02611fa0611302565b8786866040518563ffffffff1660e01b8152600401611fc29493929190613c2c565b6020604051808303816000875af1925050508015611ffe57506040513d601f19601f82011682018060405250810190611ffb9190613c8d565b60015b612080573d806000811461202e576040519150601f19603f3d011682016040523d82523d6000602084013e612033565b606091505b506000815103612078576040517f08c379a000000000000000000000000000000000000000000000000000000000815260040161206f90613ab6565b60405180910390fd5b805181602001fd5b63150b7a0260e01b7bffffffffffffffffffffffffffffffffffffffffffffffffffffffff1916817bffffffffffffffffffffffffffffffffffffffffffffffffffffffff1916149150506120d5565b600190505b949350505050565b600080600090507a184f03e93ff9f4daa797ed6e38ed64bf6a1f010000000000000000831061213b577a184f03e93ff9f4daa797ed6e38ed64bf6a1f010000000000000000838161213157612130613ad6565b5b0492506040810190505b6d04ee2d6d415b85acef81000000008310612178576d04ee2d6d415b85acef8100000000838161216e5761216d613ad6565b5b0492506020810190505b662386f26fc1000083106121a757662386f26fc10000838161219d5761219c613ad6565b5b0492506010810190505b6305f5e10083106121d0576305f5e10083816121c6576121c5613ad6565b5b0492506008810190505b61271083106121f55761271083816121eb576121ea613ad6565b5b0492506004810190505b60648310612218576064838161220e5761220d613ad6565b5b0492506002810190505b600a8310612227576001810190505b80915050919050565b61223a8383612581565b6122476000848484611f56565b612286576040517f08c379a000000000000000000000000000000000000000000000000000000000815260040161227d90613ab6565b60405180910390fd5b505050565b60007f01ffc9a7000000000000000000000000000000000000000000000000000000007bffffffffffffffffffffffffffffffffffffffffffffffffffffffff1916827bffffffffffffffffffffffffffffffffffffffffffffffffffffffff1916149050919050565b606061231b8273ffffffffffffffffffffffffffffffffffffffff16601460ff16612322565b9050919050565b6060600060028360026123359190613ce9565b61233f9190613d2b565b67ffffffffffffffff81111561235857612357612e6b565b5b6040519080825280601f01601f19166020018201604052801561238a5781602001600182028036833780820191505090505b5090507f3000000000000000000000000000000000000000000000000000000000000000816000815181106123c2576123c1613515565b5b60200101907effffffffffffffffffffffffffffffffffffffffffffffffffffffffffffff1916908160001a9053507f78000000000000000000000000000000000000000000000000000000000000008160018151811061242657612425613515565b5b60200101907effffffffffffffffffffffffffffffffffffffffffffffffffffffffffffff1916908160001a905350600060018460026124669190613ce9565b6124709190613d2b565b90505b6001811115612510577f3031323334353637383961626364656600000000000000000000000000000000600f8616601081106124b2576124b1613515565b5b1a60f81b8282815181106124c9576124c8613515565b5b60200101907effffffffffffffffffffffffffffffffffffffffffffffffffffffffffffff1916908160001a905350600485901c94508061250990613d5f565b9050612473565b5060008414612554576040517f08c379a000000000000000000000000000000000000000000000000000000000815260040161254b90613dd4565b60405180910390fd5b8091505092915050565b6000808273ffffffffffffffffffffffffffffffffffffffff163b119050919050565b600073ffffffffffffffffffffffffffffffffffffffff168273ffffffffffffffffffffffffffffffffffffffff16036125f0576040517f08c379a00000000000000000000000000000000000000000000000000000000081526004016125e790613e40565b60405180910390fd5b6125f981611e84565b15612639576040517f08c379a000000000000000000000000000000000000000000000000000000000815260040161263090613eac565b60405180910390fd5b612647600083836001611ec5565b61265081611e84565b15612690576040517f08c379a000000000000000000000000000000000000000000000000000000000815260040161268790613eac565b60405180910390fd5b6001600360008473ffffffffffffffffffffffffffffffffffffffff1673ffffffffffffffffffffffffffffffffffffffff16815260200190815260200160002060008282540192505081905550816002600083815260200190815260200160002060006101000a81548173ffffffffffffffffffffffffffffffffffffffff021916908373ffffffffffffffffffffffffffffffffffffffff160217905550808273ffffffffffffffffffffffffffffffffffffffff16600073ffffffffffffffffffffffffffffffffffffffff167fddf252ad1be2c89b69c2b068fc378daa952ba7f163c4a11628f55a4df523b3ef60405160405180910390a461279a600083836001611ecb565b5050565b6040518060800160405280606081526020016060815260200160608152602001606081525090565b828054828255906000526020600020908101928215612802579160200282015b828111156128015782518255916020019190600101906127e6565b5b50905061280f9190612813565b5090565b5b8082111561282c576000816000905550600101612814565b5090565b6000604051905090565b600080fd5b600080fd5b60007fffffffff0000000000000000000000000000000000000000000000000000000082169050919050565b61287981612844565b811461288457600080fd5b50565b60008135905061289681612870565b92915050565b6000602082840312156128b2576128b161283a565b5b60006128c084828501612887565b91505092915050565b60008115159050919050565b6128de816128c9565b82525050565b60006020820190506128f960008301846128d5565b92915050565b600073ffffffffffffffffffffffffffffffffffffffff82169050919050565b600061292a826128ff565b9050919050565b61293a8161291f565b82525050565b60006020820190506129556000830184612931565b92915050565b600081519050919050565b600082825260208201905092915050565b60005b8381101561299557808201518184015260208101905061297a565b60008484015250505050565b6000601f19601f8301169050919050565b60006129bd8261295b565b6129c78185612966565b93506129d7818560208601612977565b6129e0816129a1565b840191505092915050565b60006020820190508181036000830152612a0581846129b2565b905092915050565b6000819050919050565b612a2081612a0d565b8114612a2b57600080fd5b50565b600081359050612a3d81612a17565b92915050565b600060208284031215612a5957612a5861283a565b5b6000612a6784828501612a2e565b91505092915050565b612a798161291f565b8114612a8457600080fd5b50565b600081359050612a9681612a70565b92915050565b60008060408385031215612ab357612ab261283a565b5b6000612ac185828601612a87565b9250506020612ad285828601612a2e565b9150509250929050565b600080600060608486031215612af557612af461283a565b5b6000612b0386828701612a87565b9350506020612b1486828701612a87565b9250506040612b2586828701612a2e565b9150509250925092565b6000819050919050565b612b4281612b2f565b8114612b4d57600080fd5b50565b600081359050612b5f81612b39565b92915050565b600060208284031215612b7b57612b7a61283a565b5b6000612b8984828501612b50565b91505092915050565b612b9b81612b2f565b82525050565b6000602082019050612bb66000830184612b92565b92915050565b60008060408385031215612bd357612bd261283a565b5b6000612be185828601612b50565b9250506020612bf285828601612a87565b9150509250929050565b600082825260208201905092915050565b6000612c188261295b565b612c228185612bfc565b9350612c32818560208601612977565b612c3b816129a1565b840191505092915050565b600081519050919050565b600082825260208201905092915050565b6000819050602082019050919050565b612c7b81612a0d565b82525050565b6000612c8d8383612c72565b60208301905092915050565b6000602082019050919050565b6000612cb182612c46565b612cbb8185612c51565b9350612cc683612c62565b8060005b83811015612cf7578151612cde8882612c81565b9750612ce983612c99565b925050600181019050612cca565b5085935050505092915050565b60006080830160008301518482036000860152612d218282612c0d565b91505060208301518482036020860152612d3b8282612c0d565b91505060408301518482036040860152612d558282612c0d565b91505060608301518482036060860152612d6f8282612ca6565b9150508091505092915050565b60006020820190508181036000830152612d968184612d04565b905092915050565b600060208284031215612db457612db361283a565b5b6000612dc284828501612a87565b91505092915050565b612dd481612a0d565b82525050565b6000602082019050612def6000830184612dcb565b92915050565b612dfe816128c9565b8114612e0957600080fd5b50565b600081359050612e1b81612df5565b92915050565b60008060408385031215612e3857612e3761283a565b5b6000612e4685828601612a87565b9250506020612e5785828601612e0c565b9150509250929050565b600080fd5b600080fd5b7f4e487b7100000000000000000000000000000000000000000000000000000000600052604160045260246000fd5b612ea3826129a1565b810181811067ffffffffffffffff82111715612ec257612ec1612e6b565b5b80604052505050565b6000612ed5612830565b9050612ee18282612e9a565b919050565b600067ffffffffffffffff821115612f0157612f00612e6b565b5b612f0a826129a1565b9050602081019050919050565b82818337600083830152505050565b6000612f39612f3484612ee6565b612ecb565b905082815260208101848484011115612f5557612f54612e66565b5b612f60848285612f17565b509392505050565b600082601f830112612f7d57612f7c612e61565b5b8135612f8d848260208601612f26565b91505092915050565b60008060008060808587031215612fb057612faf61283a565b5b6000612fbe87828801612a87565b9450506020612fcf87828801612a87565b9350506040612fe087828801612a2e565b925050606085013567ffffffffffffffff8111156130015761300061283f565b5b61300d87828801612f68565b91505092959194509250565b6000606082019050818103600083015261303381866129b2565b9050818103602083015261304781856129b2565b9050818103604083015261305b81846129b2565b9050949350505050565b6000806040838503121561307c5761307b61283a565b5b600061308a85828601612a87565b925050602061309b85828601612a87565b9150509250929050565b600067ffffffffffffffff8211156130c0576130bf612e6b565b5b6130c9826129a1565b9050602081019050919050565b60006130e96130e4846130a5565b612ecb565b90508281526020810184848401111561310557613104612e66565b5b613110848285612f17565b509392505050565b600082601f83011261312d5761312c612e61565b5b813561313d8482602086016130d6565b91505092915050565b600080600080608085870312156131605761315f61283a565b5b600061316e87828801612a87565b945050602085013567ffffffffffffffff81111561318f5761318e61283f565b5b61319b87828801613118565b935050604085013567ffffffffffffffff8111156131bc576131bb61283f565b5b6131c887828801613118565b925050606085013567ffffffffffffffff8111156131e9576131e861283f565b5b6131f587828801613118565b91505092959194509250565b7f4e487b7100000000000000000000000000000000000000000000000000000000600052602260045260246000fd5b6000600282049050600182168061324857607f821691505b60208210810361325b5761325a613201565b5b50919050565b7f4552433732313a20617070726f76616c20746f2063757272656e74206f776e6560008201527f7200000000000000000000000000000000000000000000000000000000000000602082015250565b60006132bd602183612966565b91506132c882613261565b604082019050919050565b600060208201905081810360008301526132ec816132b0565b9050919050565b7f4552433732313a20617070726f76652063616c6c6572206973206e6f7420746f60008201527f6b656e206f776e6572206f7220617070726f76656420666f7220616c6c000000602082015250565b600061334f603d83612966565b915061335a826132f3565b604082019050919050565b6000602082019050818103600083015261337e81613342565b9050919050565b7f4552433732313a2063616c6c6572206973206e6f7420746f6b656e206f776e6560008201527f72206f7220617070726f76656400000000000000000000000000000000000000602082015250565b60006133e1602d83612966565b91506133ec82613385565b604082019050919050565b60006020820190508181036000830152613410816133d4565b9050919050565b7f416363657373436f6e74726f6c3a2063616e206f6e6c792072656e6f756e636560008201527f20726f6c657320666f722073656c660000000000000000000000000000000000602082015250565b6000613473602f83612966565b915061347e82613417565b604082019050919050565b600060208201905081810360008301526134a281613466565b9050919050565b7f4552433732313a20696e76616c696420746f6b656e2049440000000000000000600082015250565b60006134df601883612966565b91506134ea826134a9565b602082019050919050565b6000602082019050818103600083015261350e816134d2565b9050919050565b7f4e487b7100000000000000000000000000000000000000000000000000000000600052603260045260246000fd5b7f4552433732313a2061646472657373207a65726f206973206e6f74206120766160008201527f6c6964206f776e65720000000000000000000000000000000000000000000000602082015250565b60006135a0602983612966565b91506135ab82613544565b604082019050919050565b600060208201905081810360008301526135cf81613593565b9050919050565b600081905092915050565b60006135ec8261295b565b6135f681856135d6565b9350613606818560208601612977565b80840191505092915050565b600061361e82856135e1565b915061362a82846135e1565b91508190509392505050565b60008190508160005260206000209050919050565b60006020601f8301049050919050565b600082821b905092915050565b6000600883026136987fffffffffffffffffffffffffffffffffffffffffffffffffffffffffffffffff8261365b565b6136a2868361365b565b95508019841693508086168417925050509392505050565b6000819050919050565b60006136df6136da6136d584612a0d565b6136ba565b612a0d565b9050919050565b6000819050919050565b6136f9836136c4565b61370d613705826136e6565b848454613668565b825550505050565b600090565b613722613715565b61372d8184846136f0565b505050565b5b818110156137515761374660008261371a565b600181019050613733565b5050565b601f8211156137965761376781613636565b6137708461364b565b8101602085101561377f578190505b61379361378b8561364b565b830182613732565b50505b505050565b600082821c905092915050565b60006137b96000198460080261379b565b1980831691505092915050565b60006137d283836137a8565b9150826002028217905092915050565b6137eb8261295b565b67ffffffffffffffff81111561380457613803612e6b565b5b61380e8254613230565b613819828285613755565b600060209050601f83116001811461384c576000841561383a578287015190505b61384485826137c6565b8655506138ac565b601f19841661385a86613636565b60005b828110156138825784890151825560018201915060208501945060208101905061385d565b8683101561389f578489015161389b601f8916826137a8565b8355505b6001600288020188555050505b505050505050565b7f4552433732313a207472616e736665722066726f6d20696e636f72726563742060008201527f6f776e6572000000000000000000000000000000000000000000000000000000602082015250565b6000613910602583612966565b915061391b826138b4565b604082019050919050565b6000602082019050818103600083015261393f81613903565b9050919050565b7f4552433732313a207472616e7366657220746f20746865207a65726f2061646460008201527f7265737300000000000000000000000000000000000000000000000000000000602082015250565b60006139a2602483612966565b91506139ad82613946565b604082019050919050565b600060208201905081810360008301526139d181613995565b9050919050565b7f4552433732313a20617070726f766520746f2063616c6c657200000000000000600082015250565b6000613a0e601983612966565b9150613a19826139d8565b602082019050919050565b60006020820190508181036000830152613a3d81613a01565b9050919050565b7f4552433732313a207472616e7366657220746f206e6f6e20455243373231526560008201527f63656976657220696d706c656d656e7465720000000000000000000000000000602082015250565b6000613aa0603283612966565b9150613aab82613a44565b604082019050919050565b60006020820190508181036000830152613acf81613a93565b9050919050565b7f4e487b7100000000000000000000000000000000000000000000000000000000600052601260045260246000fd5b7f416363657373436f6e74726f6c3a206163636f756e7420000000000000000000600082015250565b6000613b3b6017836135d6565b9150613b4682613b05565b601782019050919050565b7f206973206d697373696e6720726f6c6520000000000000000000000000000000600082015250565b6000613b876011836135d6565b9150613b9282613b51565b601182019050919050565b6000613ba882613b2e565b9150613bb482856135e1565b9150613bbf82613b7a565b9150613bcb82846135e1565b91508190509392505050565b600081519050919050565b600082825260208201905092915050565b6000613bfe82613bd7565b613c088185613be2565b9350613c18818560208601612977565b613c21816129a1565b840191505092915050565b6000608082019050613c416000830187612931565b613c4e6020830186612931565b613c5b6040830185612dcb565b8181036060830152613c6d8184613bf3565b905095945050505050565b600081519050613c8781612870565b92915050565b600060208284031215613ca357613ca261283a565b5b6000613cb184828501613c78565b91505092915050565b7f4e487b7100000000000000000000000000000000000000000000000000000000600052601160045260246000fd5b6000613cf482612a0d565b9150613cff83612a0d565b9250828202613d0d81612a0d565b91508282048414831517613d2457613d23613cba565b5b5092915050565b6000613d3682612a0d565b9150613d4183612a0d565b9250828201905080821115613d5957613d58613cba565b5b92915050565b6000613d6a82612a0d565b915060008203613d7d57613d7c613cba565b5b600182039050919050565b7f537472696e67733a20686578206c656e67746820696e73756666696369656e74600082015250565b6000613dbe602083612966565b9150613dc982613d88565b602082019050919050565b60006020820190508181036000830152613ded81613db1565b9050919050565b7f4552433732313a206d696e7420746f20746865207a65726f2061646472657373600082015250565b6000613e2a602083612966565b9150613e3582613df4565b602082019050919050565b60006020820190508181036000830152613e5981613e1d565b9050919050565b7f4552433732313a20746f6b656e20616c7265616479206d696e74656400000000600082015250565b6000613e96601c83612966565b9150613ea182613e60565b602082019050919050565b60006020820190508181036000830152613ec581613e89565b905091905056fea264697066735822122069abebff80cc7f1e81e6bb9975bf9bf6a4a35bc7370f0982e33a6421532bd64b64736f6c63430008130033",
  "linkReferences": {},
  "deployedLinkReferences": {}
}