{
  "_format": "hh-sol-artifact-1",
  "contractName": "Tournament",
  "sourceName": "contracts/Tournament.sol",
  "abi": [
    {
      "inputs": [
        {
          "internalType": "address",
          "name": "_tournamentOwner",
          "type": "address"
        },
        {
          "internalType": "uint256",
          "name": "_tournamentEndTime",
          "type": "uint256"
        },
        {
          "internalType": "uint256",
          "name": "_winnerRewardPercentage",
          "type": "uint256"
        },
        {
          "components": [
            {
              "internalType": "string",
              "name": "name",
              "type": "string"
            },
            {
              "internalType": "string",
              "name": "profile",
              "type": "string"
            }
          ],
          "internalType": "struct TournamentDetails",
          "name": "_tournamentDetails",
          "type": "tuple"
        },
        {
          "internalType": "address",
          "name": "_nftAddr",
          "type": "address"
        }
      ],
      "stateMutability": "nonpayable",
      "type": "constructor"
    },
    {
      "anonymous": false,
      "inputs": [
        {
          "indexed": false,
          "internalType": "address",
          "name": "",
          "type": "address"
        },
        {
          "indexed": false,
          "internalType": "address",
          "name": "",
          "type": "address"
        },
        {
          "indexed": false,
          "internalType": "uint256",
          "name": "",
          "type": "uint256"
        }
      ],
      "name": "Deposited",
      "type": "event"
    },
    {
      "anonymous": false,
      "inputs": [
        {
          "indexed": false,
          "internalType": "address",
          "name": "",
          "type": "address"
        },
        {
          "indexed": false,
          "internalType": "uint256",
          "name": "",
          "type": "uint256"
        }
      ],
      "name": "TournamendEnded",
      "type": "event"
    },
    {
      "inputs": [],
      "name": "deposit",
      "outputs": [],
      "stateMutability": "payable",
      "type": "function"
    },
    {
      "inputs": [],
      "name": "endTime",
      "outputs": [
        {
          "internalType": "uint256",
          "name": "",
          "type": "uint256"
        }
      ],
      "stateMutability": "view",
      "type": "function"
    },
    {
      "inputs": [],
      "name": "grantPrize",
      "outputs": [],
      "stateMutability": "payable",
      "type": "function"
    },
    {
      "inputs": [],
      "name": "grantPrizeCalled",
      "outputs": [
        {
          "internalType": "bool",
          "name": "",
          "type": "bool"
        }
      ],
      "stateMutability": "view",
      "type": "function"
    },
    {
      "inputs": [],
      "name": "host",
      "outputs": [
        {
          "internalType": "address",
          "name": "",
          "type": "address"
        }
      ],
      "stateMutability": "view",
      "type": "function"
    },
    {
      "inputs": [],
      "name": "nft",
      "outputs": [
        {
          "internalType": "contract IBase721",
          "name": "",
          "type": "address"
        }
      ],
      "stateMutability": "view",
      "type": "function"
    },
    {
      "inputs": [],
      "name": "sentPrizeToTheWinner",
      "outputs": [
        {
          "internalType": "bool",
          "name": "",
          "type": "bool"
        }
      ],
      "stateMutability": "view",
      "type": "function"
    },
    {
      "inputs": [
        {
          "internalType": "uint256",
          "name": "_percent",
          "type": "uint256"
        }
      ],
      "name": "setPercentage",
      "outputs": [],
      "stateMutability": "nonpayable",
      "type": "function"
    },
    {
      "inputs": [
        {
          "internalType": "address",
          "name": "_winner",
          "type": "address"
        }
      ],
      "name": "setWinner",
      "outputs": [],
      "stateMutability": "nonpayable",
      "type": "function"
    },
    {
      "inputs": [],
      "name": "tournamentDetails",
      "outputs": [
        {
          "internalType": "string",
          "name": "name",
          "type": "string"
        },
        {
          "internalType": "string",
          "name": "profile",
          "type": "string"
        }
      ],
      "stateMutability": "view",
      "type": "function"
    },
    {
      "inputs": [],
      "name": "winner",
      "outputs": [
        {
          "internalType": "address",
          "name": "",
          "type": "address"
        }
      ],
      "stateMutability": "view",
      "type": "function"
    },
    {
      "inputs": [],
      "name": "winnerCalled",
      "outputs": [
        {
          "internalType": "bool",
          "name": "",
          "type": "bool"
        }
      ],
      "stateMutability": "view",
      "type": "function"
    },
    {
      "inputs": [],
      "name": "winnerRewardPercentage",
      "outputs": [
        {
          "internalType": "uint256",
          "name": "",
          "type": "uint256"
        }
      ],
      "stateMutability": "view",
      "type": "function"
    },
    {
      "inputs": [],
      "name": "withdraw",
      "outputs": [],
      "stateMutability": "nonpayable",
      "type": "function"
    },
    {
      "stateMutability": "payable",
      "type": "receive"
    }
  ],
  "bytecode": "0x60806040523480156200001157600080fd5b5060405162001e9838038062001e98833981810160405281019062000037919062000430565b60648311156200007e576040517f08c379a000000000000000000000000000000000000000000000000000000000815260040162000075906200055e565b60405180910390fd5b84600260006101000a81548173ffffffffffffffffffffffffffffffffffffffff021916908373ffffffffffffffffffffffffffffffffffffffff1602179055504284620000cd9190620005af565b600181905550826000819055508160046000820151816000019081620000f491906200082b565b5060208201518160010190816200010c91906200082b565b5090505080600660006101000a81548173ffffffffffffffffffffffffffffffffffffffff021916908373ffffffffffffffffffffffffffffffffffffffff160217905550505050505062000912565b6000604051905090565b600080fd5b600080fd5b600073ffffffffffffffffffffffffffffffffffffffff82169050919050565b60006200019d8262000170565b9050919050565b620001af8162000190565b8114620001bb57600080fd5b50565b600081519050620001cf81620001a4565b92915050565b6000819050919050565b620001ea81620001d5565b8114620001f657600080fd5b50565b6000815190506200020a81620001df565b92915050565b600080fd5b6000601f19601f8301169050919050565b7f4e487b7100000000000000000000000000000000000000000000000000000000600052604160045260246000fd5b620002608262000215565b810181811067ffffffffffffffff8211171562000282576200028162000226565b5b80604052505050565b6000620002976200015c565b9050620002a5828262000255565b919050565b600080fd5b600080fd5b600080fd5b600067ffffffffffffffff821115620002d757620002d662000226565b5b620002e28262000215565b9050602081019050919050565b60005b838110156200030f578082015181840152602081019050620002f2565b60008484015250505050565b6000620003326200032c84620002b9565b6200028b565b905082815260208101848484011115620003515762000350620002b4565b5b6200035e848285620002ef565b509392505050565b600082601f8301126200037e576200037d620002af565b5b8151620003908482602086016200031b565b91505092915050565b600060408284031215620003b257620003b162000210565b5b620003be60406200028b565b9050600082015167ffffffffffffffff811115620003e157620003e0620002aa565b5b620003ef8482850162000366565b600083015250602082015167ffffffffffffffff811115620004165762000415620002aa565b5b620004248482850162000366565b60208301525092915050565b600080600080600060a086880312156200044f576200044e62000166565b5b60006200045f88828901620001be565b95505060206200047288828901620001f9565b94505060406200048588828901620001f9565b935050606086015167ffffffffffffffff811115620004a957620004a86200016b565b5b620004b78882890162000399565b9250506080620004ca88828901620001be565b9150509295509295909350565b600082825260208201905092915050565b7f50657263656e746167652073686f756c64206265206265747765656e20302d3160008201527f3030000000000000000000000000000000000000000000000000000000000000602082015250565b600062000546602283620004d7565b91506200055382620004e8565b604082019050919050565b60006020820190508181036000830152620005798162000537565b9050919050565b7f4e487b7100000000000000000000000000000000000000000000000000000000600052601160045260246000fd5b6000620005bc82620001d5565b9150620005c983620001d5565b9250828201905080821115620005e457620005e362000580565b5b92915050565b600081519050919050565b7f4e487b7100000000000000000000000000000000000000000000000000000000600052602260045260246000fd5b600060028204905060018216806200063d57607f821691505b602082108103620006535762000652620005f5565b5b50919050565b60008190508160005260206000209050919050565b60006020601f8301049050919050565b600082821b905092915050565b600060088302620006bd7fffffffffffffffffffffffffffffffffffffffffffffffffffffffffffffffff826200067e565b620006c986836200067e565b95508019841693508086168417925050509392505050565b6000819050919050565b60006200070c620007066200070084620001d5565b620006e1565b620001d5565b9050919050565b6000819050919050565b6200072883620006eb565b62000740620007378262000713565b8484546200068b565b825550505050565b600090565b6200075762000748565b620007648184846200071d565b505050565b5b818110156200078c57620007806000826200074d565b6001810190506200076a565b5050565b601f821115620007db57620007a58162000659565b620007b0846200066e565b81016020851015620007c0578190505b620007d8620007cf856200066e565b83018262000769565b50505b505050565b600082821c905092915050565b60006200080060001984600802620007e0565b1980831691505092915050565b60006200081b8383620007ed565b9150826002028217905092915050565b6200083682620005ea565b67ffffffffffffffff81111562000852576200085162000226565b5b6200085e825462000624565b6200086b82828562000790565b600060209050601f831160018114620008a357600084156200088e578287015190505b6200089a85826200080d565b8655506200090a565b601f198416620008b38662000659565b60005b82811015620008dd57848901518255600182019150602085019450602081019050620008b6565b86831015620008fd5784890151620008f9601f891682620007ed565b8355505b6001600288020188555050505b505050505050565b61157680620009226000396000f3fe6080604052600436106100e15760003560e01c8063a546d8fa1161007f578063d71e10ac11610059578063d71e10ac14610265578063d9fca7691461026f578063dfbf53ae14610298578063f437bc59146102c3576100e8565b8063a546d8fa14610205578063aa1b98b114610230578063d0e30db01461025b576100e8565b80633ccfd60b116100bb5780633ccfd60b1461016f57806347ccca02146101865780635da4a1d3146101b157806392270ffe146101da576100e8565b8063123d9482146100ed5780632f254e96146101195780633197cbb614610144576100e8565b366100e857005b600080fd5b3480156100f957600080fd5b506101026102ee565b604051610110929190610d47565b60405180910390f35b34801561012557600080fd5b5061012e610410565b60405161013b9190610d97565b60405180910390f35b34801561015057600080fd5b50610159610416565b6040516101669190610d97565b60405180910390f35b34801561017b57600080fd5b5061018461041c565b005b34801561019257600080fd5b5061019b610596565b6040516101a89190610e31565b60405180910390f35b3480156101bd57600080fd5b506101d860048036038101906101d39190610e7d565b6105bc565b005b3480156101e657600080fd5b506101ef610656565b6040516101fc9190610ec5565b60405180910390f35b34801561021157600080fd5b5061021a610669565b6040516102279190610ec5565b60405180910390f35b34801561023c57600080fd5b5061024561067c565b6040516102529190610ec5565b60405180910390f35b61026361068f565b005b61026d6108a8565b005b34801561027b57600080fd5b5061029660048036038101906102919190610f1e565b610b26565b005b3480156102a457600080fd5b506102ad610c3f565b6040516102ba9190610f5a565b60405180910390f35b3480156102cf57600080fd5b506102d8610c65565b6040516102e59190610f5a565b60405180910390f35b60048060000180546102ff90610fa4565b80601f016020809104026020016040519081016040528092919081815260200182805461032b90610fa4565b80156103785780601f1061034d57610100808354040283529160200191610378565b820191906000526020600020905b81548152906001019060200180831161035b57829003601f168201915b50505050509080600101805461038d90610fa4565b80601f01602080910402602001604051908101604052809291908181526020018280546103b990610fa4565b80156104065780601f106103db57610100808354040283529160200191610406565b820191906000526020600020905b8154815290600101906020018083116103e957829003601f168201915b5050505050905082565b60005481565b60015481565b600260009054906101000a900473ffffffffffffffffffffffffffffffffffffffff1673ffffffffffffffffffffffffffffffffffffffff163373ffffffffffffffffffffffffffffffffffffffff16146104ac576040517f08c379a00000000000000000000000000000000000000000000000000000000081526004016104a39061106d565b60405180910390fd5b600360149054906101000a900460ff166104fb576040517f08c379a00000000000000000000000000000000000000000000000000000000081526004016104f2906110ff565b60405180910390fd5b6000600260009054906101000a900473ffffffffffffffffffffffffffffffffffffffff1673ffffffffffffffffffffffffffffffffffffffff164760405161054390611150565b60006040518083038185875af1925050503d8060008114610580576040519150601f19603f3d011682016040523d82523d6000602084013e610585565b606091505b505090508061059357600080fd5b50565b600660009054906101000a900473ffffffffffffffffffffffffffffffffffffffff1681565b600260009054906101000a900473ffffffffffffffffffffffffffffffffffffffff1673ffffffffffffffffffffffffffffffffffffffff163373ffffffffffffffffffffffffffffffffffffffff161461064c576040517f08c379a00000000000000000000000000000000000000000000000000000000081526004016106439061106d565b60405180910390fd5b8060008190555050565b600360159054906101000a900460ff1681565b600360169054906101000a900460ff1681565b600360149054906101000a900460ff1681565b6000600660009054906101000a900473ffffffffffffffffffffffffffffffffffffffff1673ffffffffffffffffffffffffffffffffffffffff166370a08231336040518263ffffffff1660e01b81526004016106ec9190610f5a565b602060405180830381865afa158015610709573d6000803e3d6000fd5b505050506040513d601f19601f8201168201806040525081019061072d919061117a565b1161076d576040517f08c379a000000000000000000000000000000000000000000000000000000000815260040161076490611219565b60405180910390fd5b60015442106107b1576040517f08c379a00000000000000000000000000000000000000000000000000000000081526004016107a890611285565b60405180910390fd5b600034116107f4576040517f08c379a00000000000000000000000000000000000000000000000000000000081526004016107eb90611317565b60405180910390fd5b60003073ffffffffffffffffffffffffffffffffffffffff163460405161081a90611150565b60006040518083038185875af1925050503d8060008114610857576040519150601f19603f3d011682016040523d82523d6000602084013e61085c565b606091505b505090508061086a57600080fd5b7f8752a472e571a816aea92eec8dae9baf628e840f4929fbcc2d155e6233ff68a733303460405161089d93929190611337565b60405180910390a150565b600260009054906101000a900473ffffffffffffffffffffffffffffffffffffffff1673ffffffffffffffffffffffffffffffffffffffff163373ffffffffffffffffffffffffffffffffffffffff1614610938576040517f08c379a000000000000000000000000000000000000000000000000000000000815260040161092f9061106d565b60405180910390fd5b60015442101561097d576040517f08c379a0000000000000000000000000000000000000000000000000000000008152600401610974906113ba565b60405180910390fd5b600360159054906101000a900460ff16156109cd576040517f08c379a00000000000000000000000000000000000000000000000000000000081526004016109c490611426565b60405180910390fd5b60004790507f0f3b0d2acf15f78ac823ca8ecc6eedae40d58383feade6b630311d3898ff5096600360009054906101000a900473ffffffffffffffffffffffffffffffffffffffff1682604051610a25929190611446565b60405180910390a16000600360009054906101000a900473ffffffffffffffffffffffffffffffffffffffff1673ffffffffffffffffffffffffffffffffffffffff16610a906064610a8260005486610c8b90919063ffffffff16565b610ca190919063ffffffff16565b604051610a9c90611150565b60006040518083038185875af1925050503d8060008114610ad9576040519150601f19603f3d011682016040523d82523d6000602084013e610ade565b606091505b5050905080610aec57600080fd5b6001600360146101000a81548160ff0219169083151502179055506001600360156101000a81548160ff0219169083151502179055505050565b600260009054906101000a900473ffffffffffffffffffffffffffffffffffffffff1673ffffffffffffffffffffffffffffffffffffffff163373ffffffffffffffffffffffffffffffffffffffff1614610bb6576040517f08c379a0000000000000000000000000000000000000000000000000000000008152600401610bad9061106d565b60405180910390fd5b600154421015610bfb576040517f08c379a0000000000000000000000000000000000000000000000000000000008152600401610bf2906113ba565b60405180910390fd5b80600360006101000a81548173ffffffffffffffffffffffffffffffffffffffff021916908373ffffffffffffffffffffffffffffffffffffffff16021790555050565b600360009054906101000a900473ffffffffffffffffffffffffffffffffffffffff1681565b600260009054906101000a900473ffffffffffffffffffffffffffffffffffffffff1681565b60008183610c99919061149e565b905092915050565b60008183610caf919061150f565b905092915050565b600081519050919050565b600082825260208201905092915050565b60005b83811015610cf1578082015181840152602081019050610cd6565b60008484015250505050565b6000601f19601f8301169050919050565b6000610d1982610cb7565b610d238185610cc2565b9350610d33818560208601610cd3565b610d3c81610cfd565b840191505092915050565b60006040820190508181036000830152610d618185610d0e565b90508181036020830152610d758184610d0e565b90509392505050565b6000819050919050565b610d9181610d7e565b82525050565b6000602082019050610dac6000830184610d88565b92915050565b600073ffffffffffffffffffffffffffffffffffffffff82169050919050565b6000819050919050565b6000610df7610df2610ded84610db2565b610dd2565b610db2565b9050919050565b6000610e0982610ddc565b9050919050565b6000610e1b82610dfe565b9050919050565b610e2b81610e10565b82525050565b6000602082019050610e466000830184610e22565b92915050565b600080fd5b610e5a81610d7e565b8114610e6557600080fd5b50565b600081359050610e7781610e51565b92915050565b600060208284031215610e9357610e92610e4c565b5b6000610ea184828501610e68565b91505092915050565b60008115159050919050565b610ebf81610eaa565b82525050565b6000602082019050610eda6000830184610eb6565b92915050565b6000610eeb82610db2565b9050919050565b610efb81610ee0565b8114610f0657600080fd5b50565b600081359050610f1881610ef2565b92915050565b600060208284031215610f3457610f33610e4c565b5b6000610f4284828501610f09565b91505092915050565b610f5481610ee0565b82525050565b6000602082019050610f6f6000830184610f4b565b92915050565b7f4e487b7100000000000000000000000000000000000000000000000000000000600052602260045260246000fd5b60006002820490506001821680610fbc57607f821691505b602082108103610fcf57610fce610f75565b5b50919050565b7f4f6e6c792074686520686f73742063616e206772616e7420746865207072697a60008201527f6520616e64207472616e7366657220697420746f207468652077696e6e65722060208201527f6f662074686520746f75726e616d656e74000000000000000000000000000000604082015250565b6000611057605183610cc2565b915061106282610fd5565b606082019050919050565b600060208201905081810360008301526110868161104a565b9050919050565b7f46697273746c792073686f756c642063616c6c206772616e745072697a65206660008201527f756e6374696f6e00000000000000000000000000000000000000000000000000602082015250565b60006110e9602783610cc2565b91506110f48261108d565b604082019050919050565b60006020820190508181036000830152611118816110dc565b9050919050565b600081905092915050565b50565b600061113a60008361111f565b91506111458261112a565b600082019050919050565b600061115b8261112d565b9150819050919050565b60008151905061117481610e51565b92915050565b6000602082840312156111905761118f610e4c565b5b600061119e84828501611165565b91505092915050565b7f4f6e6c792074686520757365722077686f20686173206e66742063616e20616360008201527f6365737320746869732066756e6374696f6e0000000000000000000000000000602082015250565b6000611203603283610cc2565b915061120e826111a7565b604082019050919050565b60006020820190508181036000830152611232816111f6565b9050919050565b7f546f75726e616d656e7420656e64656400000000000000000000000000000000600082015250565b600061126f601083610cc2565b915061127a82611239565b602082019050919050565b6000602082019050818103600083015261129e81611262565b9050919050565b7f596f75722076616c75652073686f756c6420626520677265617465722074686160008201527f6e20300000000000000000000000000000000000000000000000000000000000602082015250565b6000611301602383610cc2565b915061130c826112a5565b604082019050919050565b60006020820190508181036000830152611330816112f4565b9050919050565b600060608201905061134c6000830186610f4b565b6113596020830185610f4b565b6113666040830184610d88565b949350505050565b7f546f75726e616d656e74206861736e277420656e646564207965740000000000600082015250565b60006113a4601b83610cc2565b91506113af8261136e565b602082019050919050565b600060208201905081810360008301526113d381611397565b9050919050565b7f416c72656164792073656e74207072697a6520746f207468652077696e6e6572600082015250565b6000611410602083610cc2565b915061141b826113da565b602082019050919050565b6000602082019050818103600083015261143f81611403565b9050919050565b600060408201905061145b6000830185610f4b565b6114686020830184610d88565b9392505050565b7f4e487b7100000000000000000000000000000000000000000000000000000000600052601160045260246000fd5b60006114a982610d7e565b91506114b483610d7e565b92508282026114c281610d7e565b915082820484148315176114d9576114d861146f565b5b5092915050565b7f4e487b7100000000000000000000000000000000000000000000000000000000600052601260045260246000fd5b600061151a82610d7e565b915061152583610d7e565b925082611535576115346114e0565b5b82820490509291505056fea264697066735822122054c175de383bc2c24e2ddea5d599a41afef6356c3095f15badc06e08f85e1c0f64736f6c63430008130033",
  "linkReferences": {},
  "deployedLinkReferences": {}
}